{
	"contracts/SubWallets.sol": {
		"SubWallets": {
			"abi": [
				{
					"anonymous": false,
					"inputs": [
						{
							"indexed": true,
							"internalType": "address",
							"name": "owner",
							"type": "address"
						},
						{
							"indexed": false,
							"internalType": "string",
							"name": "encryptedAccount",
							"type": "string"
						},
						{
							"indexed": false,
							"internalType": "string",
							"name": "network",
							"type": "string"
						},
						{
							"indexed": false,
							"internalType": "string",
							"name": "accountAddress",
							"type": "string"
						}
					],
					"name": "SubWalletStored",
					"type": "event"
				},
				{
					"inputs": [],
					"name": "getAccounts",
					"outputs": [
						{
							"components": [
								{
									"internalType": "address",
									"name": "owner",
									"type": "address"
								},
								{
									"internalType": "string",
									"name": "encryptedAccount",
									"type": "string"
								},
								{
									"internalType": "string",
									"name": "network",
									"type": "string"
								},
								{
									"internalType": "string",
									"name": "accountAddress",
									"type": "string"
								}
							],
							"internalType": "struct SubWallets.SubWallet[]",
							"name": "",
							"type": "tuple[]"
						}
					],
					"stateMutability": "view",
					"type": "function"
				},
				{
					"inputs": [
						{
							"internalType": "address",
							"name": "_owner",
							"type": "address"
						}
					],
					"name": "getAccountsByAddress",
					"outputs": [
						{
							"components": [
								{
									"internalType": "address",
									"name": "owner",
									"type": "address"
								},
								{
									"internalType": "string",
									"name": "encryptedAccount",
									"type": "string"
								},
								{
									"internalType": "string",
									"name": "network",
									"type": "string"
								},
								{
									"internalType": "string",
									"name": "accountAddress",
									"type": "string"
								}
							],
							"internalType": "struct SubWallets.SubWallet[]",
							"name": "",
							"type": "tuple[]"
						}
					],
					"stateMutability": "view",
					"type": "function"
				},
				{
					"inputs": [
						{
							"internalType": "string",
							"name": "_encryptedAccount",
							"type": "string"
						},
						{
							"internalType": "string",
							"name": "_network",
							"type": "string"
						},
						{
							"internalType": "string",
							"name": "_accountAddress",
							"type": "string"
						}
					],
					"name": "storeEncryptedAccount",
					"outputs": [],
					"stateMutability": "nonpayable",
					"type": "function"
				},
				{
					"inputs": [
						{
							"internalType": "uint256",
							"name": "",
							"type": "uint256"
						}
					],
					"name": "subWallets",
					"outputs": [
						{
							"internalType": "address",
							"name": "owner",
							"type": "address"
						},
						{
							"internalType": "string",
							"name": "encryptedAccount",
							"type": "string"
						},
						{
							"internalType": "string",
							"name": "network",
							"type": "string"
						},
						{
							"internalType": "string",
							"name": "accountAddress",
							"type": "string"
						}
					],
					"stateMutability": "view",
					"type": "function"
				}
			],
			"devdoc": {
				"kind": "dev",
				"methods": {},
				"version": 1
			},
			"evm": {
				"assembly": "    /* \"contracts/SubWallets.sol\":57:2200  contract SubWallets {... */\n  mstore(0x40, 0x80)\n  callvalue\n  dup1\n  iszero\n  tag_1\n  jumpi\n  0x00\n  dup1\n  revert\ntag_1:\n  pop\n  dataSize(sub_0)\n  dup1\n  dataOffset(sub_0)\n  0x00\n  codecopy\n  0x00\n  return\nstop\n\nsub_0: assembly {\n        /* \"contracts/SubWallets.sol\":57:2200  contract SubWallets {... */\n      mstore(0x40, 0x80)\n      callvalue\n      dup1\n      iszero\n      tag_1\n      jumpi\n      0x00\n      dup1\n      revert\n    tag_1:\n      pop\n      jumpi(tag_2, lt(calldatasize, 0x04))\n      shr(0xe0, calldataload(0x00))\n      dup1\n      0x380e78af\n      eq\n      tag_3\n      jumpi\n      dup1\n      0x879a2bb3\n      eq\n      tag_4\n      jumpi\n      dup1\n      0x8a48ac03\n      eq\n      tag_5\n      jumpi\n      dup1\n      0x9d2e8724\n      eq\n      tag_6\n      jumpi\n    tag_2:\n      0x00\n      dup1\n      revert\n        /* \"contracts/SubWallets.sol\":1324:2198  function getAccountsByAddress(address _owner) public view returns (SubWallet[] memory) {... */\n    tag_3:\n      tag_7\n      0x04\n      dup1\n      calldatasize\n      sub\n      dup2\n      add\n      swap1\n      tag_8\n      swap2\n      swap1\n      tag_9\n      jump\t// in\n    tag_8:\n      tag_10\n      jump\t// in\n    tag_7:\n      mload(0x40)\n      tag_11\n      swap2\n      swap1\n      tag_12\n      jump\t// in\n    tag_11:\n      mload(0x40)\n      dup1\n      swap2\n      sub\n      swap1\n      return\n        /* \"contracts/SubWallets.sol\":413:995  function storeEncryptedAccount(... */\n    tag_4:\n      tag_13\n      0x04\n      dup1\n      calldatasize\n      sub\n      dup2\n      add\n      swap1\n      tag_14\n      swap2\n      swap1\n      tag_15\n      jump\t// in\n    tag_14:\n      tag_16\n      jump\t// in\n    tag_13:\n      stop\n        /* \"contracts/SubWallets.sol\":1100:1198  function getAccounts() public view returns (SubWallet[] memory) {... */\n    tag_5:\n      tag_17\n      tag_18\n      jump\t// in\n    tag_17:\n      mload(0x40)\n      tag_19\n      swap2\n      swap1\n      tag_12\n      jump\t// in\n    tag_19:\n      mload(0x40)\n      dup1\n      swap2\n      sub\n      swap1\n      return\n        /* \"contracts/SubWallets.sol\":224:253  SubWallet[] public subWallets */\n    tag_6:\n      tag_20\n      0x04\n      dup1\n      calldatasize\n      sub\n      dup2\n      add\n      swap1\n      tag_21\n      swap2\n      swap1\n      tag_22\n      jump\t// in\n    tag_21:\n      tag_23\n      jump\t// in\n    tag_20:\n      mload(0x40)\n      tag_24\n      swap5\n      swap4\n      swap3\n      swap2\n      swap1\n      tag_25\n      jump\t// in\n    tag_24:\n      mload(0x40)\n      dup1\n      swap2\n      sub\n      swap1\n      return\n        /* \"contracts/SubWallets.sol\":1324:2198  function getAccountsByAddress(address _owner) public view returns (SubWallet[] memory) {... */\n    tag_10:\n        /* \"contracts/SubWallets.sol\":1391:1409  SubWallet[] memory */\n      0x60\n        /* \"contracts/SubWallets.sol\":1421:1431  uint count */\n      0x00\n        /* \"contracts/SubWallets.sol\":1589:1595  uint i */\n      dup1\n        /* \"contracts/SubWallets.sol\":1584:1728  for (uint i = 0; i < subWallets.length; i++) {... */\n    tag_27:\n        /* \"contracts/SubWallets.sol\":1605:1615  subWallets */\n      0x00\n        /* \"contracts/SubWallets.sol\":1605:1622  subWallets.length */\n      dup1\n      sload\n      swap1\n      pop\n        /* \"contracts/SubWallets.sol\":1601:1602  i */\n      dup2\n        /* \"contracts/SubWallets.sol\":1601:1622  i < subWallets.length */\n      lt\n        /* \"contracts/SubWallets.sol\":1584:1728  for (uint i = 0; i < subWallets.length; i++) {... */\n      iszero\n      tag_28\n      jumpi\n        /* \"contracts/SubWallets.sol\":1670:1676  _owner */\n      dup4\n        /* \"contracts/SubWallets.sol\":1647:1676  subWallets[i].owner == _owner */\n      0xffffffffffffffffffffffffffffffffffffffff\n      and\n        /* \"contracts/SubWallets.sol\":1647:1657  subWallets */\n      0x00\n        /* \"contracts/SubWallets.sol\":1658:1659  i */\n      dup3\n        /* \"contracts/SubWallets.sol\":1647:1660  subWallets[i] */\n      dup2\n      sload\n      dup2\n      lt\n      tag_30\n      jumpi\n      tag_31\n      tag_32\n      jump\t// in\n    tag_31:\n    tag_30:\n      swap1\n      0x00\n      mstore\n      keccak256(0x00, 0x20)\n      swap1\n      0x04\n      mul\n      add\n        /* \"contracts/SubWallets.sol\":1647:1666  subWallets[i].owner */\n      0x00\n      add\n      0x00\n      swap1\n      sload\n      swap1\n      0x0100\n      exp\n      swap1\n      div\n      0xffffffffffffffffffffffffffffffffffffffff\n      and\n        /* \"contracts/SubWallets.sol\":1647:1676  subWallets[i].owner == _owner */\n      0xffffffffffffffffffffffffffffffffffffffff\n      and\n      sub\n        /* \"contracts/SubWallets.sol\":1643:1718  if (subWallets[i].owner == _owner) {... */\n      tag_34\n      jumpi\n        /* \"contracts/SubWallets.sol\":1696:1703  count++ */\n      dup2\n      dup1\n      tag_35\n      swap1\n      tag_36\n      jump\t// in\n    tag_35:\n      swap3\n      pop\n      pop\n        /* \"contracts/SubWallets.sol\":1643:1718  if (subWallets[i].owner == _owner) {... */\n    tag_34:\n        /* \"contracts/SubWallets.sol\":1624:1627  i++ */\n      dup1\n      dup1\n      0x01\n      add\n      swap2\n      pop\n      pop\n        /* \"contracts/SubWallets.sol\":1584:1728  for (uint i = 0; i < subWallets.length; i++) {... */\n      jump(tag_27)\n    tag_28:\n      pop\n        /* \"contracts/SubWallets.sol\":1824:1849  SubWallet[] memory result */\n      0x00\n        /* \"contracts/SubWallets.sol\":1868:1873  count */\n      dup2\n        /* \"contracts/SubWallets.sol\":1852:1874  new SubWallet[](count) */\n      0xffffffffffffffff\n      dup2\n      gt\n      iszero\n      tag_37\n      jumpi\n      tag_38\n      tag_39\n      jump\t// in\n    tag_38:\n    tag_37:\n      mload(0x40)\n      swap1\n      dup1\n      dup3\n      mstore\n      dup1\n      0x20\n      mul\n      0x20\n      add\n      dup3\n      add\n      0x40\n      mstore\n      dup1\n      iszero\n      tag_40\n      jumpi\n      dup2\n      0x20\n      add\n    tag_41:\n      tag_42\n      tag_43\n      jump\t// in\n    tag_42:\n      dup2\n      mstore\n      0x20\n      add\n      swap1\n      0x01\n      swap1\n      sub\n      swap1\n      dup2\n      tag_41\n      jumpi\n      swap1\n      pop\n    tag_40:\n      pop\n        /* \"contracts/SubWallets.sol\":1824:1874  SubWallet[] memory result = new SubWallet[](count) */\n      swap1\n      pop\n        /* \"contracts/SubWallets.sol\":1884:1894  uint index */\n      0x00\n        /* \"contracts/SubWallets.sol\":1982:1988  uint i */\n      dup1\n        /* \"contracts/SubWallets.sol\":1977:2168  for (uint i = 0; i < subWallets.length; i++) {... */\n    tag_44:\n        /* \"contracts/SubWallets.sol\":1998:2008  subWallets */\n      0x00\n        /* \"contracts/SubWallets.sol\":1998:2015  subWallets.length */\n      dup1\n      sload\n      swap1\n      pop\n        /* \"contracts/SubWallets.sol\":1994:1995  i */\n      dup2\n        /* \"contracts/SubWallets.sol\":1994:2015  i < subWallets.length */\n      lt\n        /* \"contracts/SubWallets.sol\":1977:2168  for (uint i = 0; i < subWallets.length; i++) {... */\n      iszero\n      tag_45\n      jumpi\n        /* \"contracts/SubWallets.sol\":2063:2069  _owner */\n      dup6\n        /* \"contracts/SubWallets.sol\":2040:2069  subWallets[i].owner == _owner */\n      0xffffffffffffffffffffffffffffffffffffffff\n      and\n        /* \"contracts/SubWallets.sol\":2040:2050  subWallets */\n      0x00\n        /* \"contracts/SubWallets.sol\":2051:2052  i */\n      dup3\n        /* \"contracts/SubWallets.sol\":2040:2053  subWallets[i] */\n      dup2\n      sload\n      dup2\n      lt\n      tag_47\n      jumpi\n      tag_48\n      tag_32\n      jump\t// in\n    tag_48:\n    tag_47:\n      swap1\n      0x00\n      mstore\n      keccak256(0x00, 0x20)\n      swap1\n      0x04\n      mul\n      add\n        /* \"contracts/SubWallets.sol\":2040:2059  subWallets[i].owner */\n      0x00\n      add\n      0x00\n      swap1\n      sload\n      swap1\n      0x0100\n      exp\n      swap1\n      div\n      0xffffffffffffffffffffffffffffffffffffffff\n      and\n        /* \"contracts/SubWallets.sol\":2040:2069  subWallets[i].owner == _owner */\n      0xffffffffffffffffffffffffffffffffffffffff\n      and\n      sub\n        /* \"contracts/SubWallets.sol\":2036:2158  if (subWallets[i].owner == _owner) {... */\n      tag_50\n      jumpi\n        /* \"contracts/SubWallets.sol\":2105:2115  subWallets */\n      0x00\n        /* \"contracts/SubWallets.sol\":2116:2117  i */\n      dup2\n        /* \"contracts/SubWallets.sol\":2105:2118  subWallets[i] */\n      dup2\n      sload\n      dup2\n      lt\n      tag_51\n      jumpi\n      tag_52\n      tag_32\n      jump\t// in\n    tag_52:\n    tag_51:\n      swap1\n      0x00\n      mstore\n      keccak256(0x00, 0x20)\n      swap1\n      0x04\n      mul\n      add\n        /* \"contracts/SubWallets.sol\":2089:2118  result[index] = subWallets[i] */\n      mload(0x40)\n      dup1\n      0x80\n      add\n      0x40\n      mstore\n      swap1\n      dup2\n      0x00\n      dup3\n      add\n      0x00\n      swap1\n      sload\n      swap1\n      0x0100\n      exp\n      swap1\n      div\n      0xffffffffffffffffffffffffffffffffffffffff\n      and\n      0xffffffffffffffffffffffffffffffffffffffff\n      and\n      0xffffffffffffffffffffffffffffffffffffffff\n      and\n      dup2\n      mstore\n      0x20\n      add\n      0x01\n      dup3\n      add\n      dup1\n      sload\n      tag_54\n      swap1\n      tag_55\n      jump\t// in\n    tag_54:\n      dup1\n      0x1f\n      add\n      0x20\n      dup1\n      swap2\n      div\n      mul\n      0x20\n      add\n      mload(0x40)\n      swap1\n      dup2\n      add\n      0x40\n      mstore\n      dup1\n      swap3\n      swap2\n      swap1\n      dup2\n      dup2\n      mstore\n      0x20\n      add\n      dup3\n      dup1\n      sload\n      tag_56\n      swap1\n      tag_55\n      jump\t// in\n    tag_56:\n      dup1\n      iszero\n      tag_57\n      jumpi\n      dup1\n      0x1f\n      lt\n      tag_58\n      jumpi\n      0x0100\n      dup1\n      dup4\n      sload\n      div\n      mul\n      dup4\n      mstore\n      swap2\n      0x20\n      add\n      swap2\n      jump(tag_57)\n    tag_58:\n      dup3\n      add\n      swap2\n      swap1\n      0x00\n      mstore\n      keccak256(0x00, 0x20)\n      swap1\n    tag_59:\n      dup2\n      sload\n      dup2\n      mstore\n      swap1\n      0x01\n      add\n      swap1\n      0x20\n      add\n      dup1\n      dup4\n      gt\n      tag_59\n      jumpi\n      dup3\n      swap1\n      sub\n      0x1f\n      and\n      dup3\n      add\n      swap2\n    tag_57:\n      pop\n      pop\n      pop\n      pop\n      pop\n      dup2\n      mstore\n      0x20\n      add\n      0x02\n      dup3\n      add\n      dup1\n      sload\n      tag_60\n      swap1\n      tag_55\n      jump\t// in\n    tag_60:\n      dup1\n      0x1f\n      add\n      0x20\n      dup1\n      swap2\n      div\n      mul\n      0x20\n      add\n      mload(0x40)\n      swap1\n      dup2\n      add\n      0x40\n      mstore\n      dup1\n      swap3\n      swap2\n      swap1\n      dup2\n      dup2\n      mstore\n      0x20\n      add\n      dup3\n      dup1\n      sload\n      tag_61\n      swap1\n      tag_55\n      jump\t// in\n    tag_61:\n      dup1\n      iszero\n      tag_62\n      jumpi\n      dup1\n      0x1f\n      lt\n      tag_63\n      jumpi\n      0x0100\n      dup1\n      dup4\n      sload\n      div\n      mul\n      dup4\n      mstore\n      swap2\n      0x20\n      add\n      swap2\n      jump(tag_62)\n    tag_63:\n      dup3\n      add\n      swap2\n      swap1\n      0x00\n      mstore\n      keccak256(0x00, 0x20)\n      swap1\n    tag_64:\n      dup2\n      sload\n      dup2\n      mstore\n      swap1\n      0x01\n      add\n      swap1\n      0x20\n      add\n      dup1\n      dup4\n      gt\n      tag_64\n      jumpi\n      dup3\n      swap1\n      sub\n      0x1f\n      and\n      dup3\n      add\n      swap2\n    tag_62:\n      pop\n      pop\n      pop\n      pop\n      pop\n      dup2\n      mstore\n      0x20\n      add\n      0x03\n      dup3\n      add\n      dup1\n      sload\n      tag_65\n      swap1\n      tag_55\n      jump\t// in\n    tag_65:\n      dup1\n      0x1f\n      add\n      0x20\n      dup1\n      swap2\n      div\n      mul\n      0x20\n      add\n      mload(0x40)\n      swap1\n      dup2\n      add\n      0x40\n      mstore\n      dup1\n      swap3\n      swap2\n      swap1\n      dup2\n      dup2\n      mstore\n      0x20\n      add\n      dup3\n      dup1\n      sload\n      tag_66\n      swap1\n      tag_55\n      jump\t// in\n    tag_66:\n      dup1\n      iszero\n      tag_67\n      jumpi\n      dup1\n      0x1f\n      lt\n      tag_68\n      jumpi\n      0x0100\n      dup1\n      dup4\n      sload\n      div\n      mul\n      dup4\n      mstore\n      swap2\n      0x20\n      add\n      swap2\n      jump(tag_67)\n    tag_68:\n      dup3\n      add\n      swap2\n      swap1\n      0x00\n      mstore\n      keccak256(0x00, 0x20)\n      swap1\n    tag_69:\n      dup2\n      sload\n      dup2\n      mstore\n      swap1\n      0x01\n      add\n      swap1\n      0x20\n      add\n      dup1\n      dup4\n      gt\n      tag_69\n      jumpi\n      dup3\n      swap1\n      sub\n      0x1f\n      and\n      dup3\n      add\n      swap2\n    tag_67:\n      pop\n      pop\n      pop\n      pop\n      pop\n      dup2\n      mstore\n      pop\n      pop\n        /* \"contracts/SubWallets.sol\":2089:2095  result */\n      dup4\n        /* \"contracts/SubWallets.sol\":2096:2101  index */\n      dup4\n        /* \"contracts/SubWallets.sol\":2089:2102  result[index] */\n      dup2\n      mload\n      dup2\n      lt\n      tag_70\n      jumpi\n      tag_71\n      tag_32\n      jump\t// in\n    tag_71:\n    tag_70:\n      0x20\n      mul\n      0x20\n      add\n      add\n        /* \"contracts/SubWallets.sol\":2089:2118  result[index] = subWallets[i] */\n      dup2\n      swap1\n      mstore\n      pop\n        /* \"contracts/SubWallets.sol\":2136:2143  index++ */\n      dup2\n      dup1\n      tag_72\n      swap1\n      tag_36\n      jump\t// in\n    tag_72:\n      swap3\n      pop\n      pop\n        /* \"contracts/SubWallets.sol\":2036:2158  if (subWallets[i].owner == _owner) {... */\n    tag_50:\n        /* \"contracts/SubWallets.sol\":2017:2020  i++ */\n      dup1\n      dup1\n      0x01\n      add\n      swap2\n      pop\n      pop\n        /* \"contracts/SubWallets.sol\":1977:2168  for (uint i = 0; i < subWallets.length; i++) {... */\n      jump(tag_44)\n    tag_45:\n      pop\n        /* \"contracts/SubWallets.sol\":2185:2191  result */\n      dup2\n        /* \"contracts/SubWallets.sol\":2178:2191  return result */\n      swap4\n      pop\n      pop\n      pop\n      pop\n        /* \"contracts/SubWallets.sol\":1324:2198  function getAccountsByAddress(address _owner) public view returns (SubWallet[] memory) {... */\n      swap2\n      swap1\n      pop\n      jump\t// out\n        /* \"contracts/SubWallets.sol\":413:995  function storeEncryptedAccount(... */\n    tag_16:\n        /* \"contracts/SubWallets.sol\":705:715  subWallets */\n      0x00\n        /* \"contracts/SubWallets.sol\":721:898  SubWallet({... */\n      mload(0x40)\n      dup1\n      0x80\n      add\n      0x40\n      mstore\n      dup1\n        /* \"contracts/SubWallets.sol\":752:762  msg.sender */\n      caller\n        /* \"contracts/SubWallets.sol\":721:898  SubWallet({... */\n      0xffffffffffffffffffffffffffffffffffffffff\n      and\n      dup2\n      mstore\n      0x20\n      add\n        /* \"contracts/SubWallets.sol\":794:811  _encryptedAccount */\n      dup6\n        /* \"contracts/SubWallets.sol\":721:898  SubWallet({... */\n      dup2\n      mstore\n      0x20\n      add\n        /* \"contracts/SubWallets.sol\":834:842  _network */\n      dup5\n        /* \"contracts/SubWallets.sol\":721:898  SubWallet({... */\n      dup2\n      mstore\n      0x20\n      add\n        /* \"contracts/SubWallets.sol\":872:887  _accountAddress */\n      dup4\n        /* \"contracts/SubWallets.sol\":721:898  SubWallet({... */\n      dup2\n      mstore\n      pop\n        /* \"contracts/SubWallets.sol\":705:899  subWallets.push(SubWallet({... */\n      swap1\n      dup1\n      0x01\n      dup2\n      sload\n      add\n      dup1\n      dup3\n      sstore\n      dup1\n      swap2\n      pop\n      pop\n      0x01\n      swap1\n      sub\n      swap1\n      0x00\n      mstore\n      keccak256(0x00, 0x20)\n      swap1\n      0x04\n      mul\n      add\n      0x00\n      swap1\n      swap2\n      swap1\n      swap2\n      swap1\n      swap2\n      pop\n      0x00\n      dup3\n      add\n      mload\n      dup2\n      0x00\n      add\n      exp(0x0100, 0x00)\n      dup2\n      sload\n      dup2\n      0xffffffffffffffffffffffffffffffffffffffff\n      mul\n      not\n      and\n      swap1\n      dup4\n      0xffffffffffffffffffffffffffffffffffffffff\n      and\n      mul\n      or\n      swap1\n      sstore\n      pop\n      0x20\n      dup3\n      add\n      mload\n      dup2\n      0x01\n      add\n      swap1\n      dup2\n      tag_75\n      swap2\n      swap1\n      tag_76\n      jump\t// in\n    tag_75:\n      pop\n      0x40\n      dup3\n      add\n      mload\n      dup2\n      0x02\n      add\n      swap1\n      dup2\n      tag_77\n      swap2\n      swap1\n      tag_76\n      jump\t// in\n    tag_77:\n      pop\n      0x60\n      dup3\n      add\n      mload\n      dup2\n      0x03\n      add\n      swap1\n      dup2\n      tag_78\n      swap2\n      swap1\n      tag_76\n      jump\t// in\n    tag_78:\n      pop\n      pop\n      pop\n        /* \"contracts/SubWallets.sol\":931:941  msg.sender */\n      caller\n        /* \"contracts/SubWallets.sol\":915:988  SubWalletStored(msg.sender, _encryptedAccount, _network, _accountAddress) */\n      0xffffffffffffffffffffffffffffffffffffffff\n      and\n      0x6b351a9d7298ddae531d0101befb1f430ccb6aebdcb0b867fcc742cbc7f4b06d\n        /* \"contracts/SubWallets.sol\":943:960  _encryptedAccount */\n      dup5\n        /* \"contracts/SubWallets.sol\":962:970  _network */\n      dup5\n        /* \"contracts/SubWallets.sol\":972:987  _accountAddress */\n      dup5\n        /* \"contracts/SubWallets.sol\":915:988  SubWalletStored(msg.sender, _encryptedAccount, _network, _accountAddress) */\n      mload(0x40)\n      tag_79\n      swap4\n      swap3\n      swap2\n      swap1\n      tag_80\n      jump\t// in\n    tag_79:\n      mload(0x40)\n      dup1\n      swap2\n      sub\n      swap1\n      log2\n        /* \"contracts/SubWallets.sol\":413:995  function storeEncryptedAccount(... */\n      pop\n      pop\n      pop\n      jump\t// out\n        /* \"contracts/SubWallets.sol\":1100:1198  function getAccounts() public view returns (SubWallet[] memory) {... */\n    tag_18:\n        /* \"contracts/SubWallets.sol\":1144:1162  SubWallet[] memory */\n      0x60\n        /* \"contracts/SubWallets.sol\":1181:1191  subWallets */\n      0x00\n        /* \"contracts/SubWallets.sol\":1174:1191  return subWallets */\n      dup1\n      sload\n      dup1\n      0x20\n      mul\n      0x20\n      add\n      mload(0x40)\n      swap1\n      dup2\n      add\n      0x40\n      mstore\n      dup1\n      swap3\n      swap2\n      swap1\n      dup2\n      dup2\n      mstore\n      0x20\n      add\n      0x00\n      swap1\n    tag_82:\n      dup3\n      dup3\n      lt\n      iszero\n      tag_83\n      jumpi\n      dup4\n      dup3\n      swap1\n      0x00\n      mstore\n      keccak256(0x00, 0x20)\n      swap1\n      0x04\n      mul\n      add\n      mload(0x40)\n      dup1\n      0x80\n      add\n      0x40\n      mstore\n      swap1\n      dup2\n      0x00\n      dup3\n      add\n      0x00\n      swap1\n      sload\n      swap1\n      0x0100\n      exp\n      swap1\n      div\n      0xffffffffffffffffffffffffffffffffffffffff\n      and\n      0xffffffffffffffffffffffffffffffffffffffff\n      and\n      0xffffffffffffffffffffffffffffffffffffffff\n      and\n      dup2\n      mstore\n      0x20\n      add\n      0x01\n      dup3\n      add\n      dup1\n      sload\n      tag_85\n      swap1\n      tag_55\n      jump\t// in\n    tag_85:\n      dup1\n      0x1f\n      add\n      0x20\n      dup1\n      swap2\n      div\n      mul\n      0x20\n      add\n      mload(0x40)\n      swap1\n      dup2\n      add\n      0x40\n      mstore\n      dup1\n      swap3\n      swap2\n      swap1\n      dup2\n      dup2\n      mstore\n      0x20\n      add\n      dup3\n      dup1\n      sload\n      tag_86\n      swap1\n      tag_55\n      jump\t// in\n    tag_86:\n      dup1\n      iszero\n      tag_87\n      jumpi\n      dup1\n      0x1f\n      lt\n      tag_88\n      jumpi\n      0x0100\n      dup1\n      dup4\n      sload\n      div\n      mul\n      dup4\n      mstore\n      swap2\n      0x20\n      add\n      swap2\n      jump(tag_87)\n    tag_88:\n      dup3\n      add\n      swap2\n      swap1\n      0x00\n      mstore\n      keccak256(0x00, 0x20)\n      swap1\n    tag_89:\n      dup2\n      sload\n      dup2\n      mstore\n      swap1\n      0x01\n      add\n      swap1\n      0x20\n      add\n      dup1\n      dup4\n      gt\n      tag_89\n      jumpi\n      dup3\n      swap1\n      sub\n      0x1f\n      and\n      dup3\n      add\n      swap2\n    tag_87:\n      pop\n      pop\n      pop\n      pop\n      pop\n      dup2\n      mstore\n      0x20\n      add\n      0x02\n      dup3\n      add\n      dup1\n      sload\n      tag_90\n      swap1\n      tag_55\n      jump\t// in\n    tag_90:\n      dup1\n      0x1f\n      add\n      0x20\n      dup1\n      swap2\n      div\n      mul\n      0x20\n      add\n      mload(0x40)\n      swap1\n      dup2\n      add\n      0x40\n      mstore\n      dup1\n      swap3\n      swap2\n      swap1\n      dup2\n      dup2\n      mstore\n      0x20\n      add\n      dup3\n      dup1\n      sload\n      tag_91\n      swap1\n      tag_55\n      jump\t// in\n    tag_91:\n      dup1\n      iszero\n      tag_92\n      jumpi\n      dup1\n      0x1f\n      lt\n      tag_93\n      jumpi\n      0x0100\n      dup1\n      dup4\n      sload\n      div\n      mul\n      dup4\n      mstore\n      swap2\n      0x20\n      add\n      swap2\n      jump(tag_92)\n    tag_93:\n      dup3\n      add\n      swap2\n      swap1\n      0x00\n      mstore\n      keccak256(0x00, 0x20)\n      swap1\n    tag_94:\n      dup2\n      sload\n      dup2\n      mstore\n      swap1\n      0x01\n      add\n      swap1\n      0x20\n      add\n      dup1\n      dup4\n      gt\n      tag_94\n      jumpi\n      dup3\n      swap1\n      sub\n      0x1f\n      and\n      dup3\n      add\n      swap2\n    tag_92:\n      pop\n      pop\n      pop\n      pop\n      pop\n      dup2\n      mstore\n      0x20\n      add\n      0x03\n      dup3\n      add\n      dup1\n      sload\n      tag_95\n      swap1\n      tag_55\n      jump\t// in\n    tag_95:\n      dup1\n      0x1f\n      add\n      0x20\n      dup1\n      swap2\n      div\n      mul\n      0x20\n      add\n      mload(0x40)\n      swap1\n      dup2\n      add\n      0x40\n      mstore\n      dup1\n      swap3\n      swap2\n      swap1\n      dup2\n      dup2\n      mstore\n      0x20\n      add\n      dup3\n      dup1\n      sload\n      tag_96\n      swap1\n      tag_55\n      jump\t// in\n    tag_96:\n      dup1\n      iszero\n      tag_97\n      jumpi\n      dup1\n      0x1f\n      lt\n      tag_98\n      jumpi\n      0x0100\n      dup1\n      dup4\n      sload\n      div\n      mul\n      dup4\n      mstore\n      swap2\n      0x20\n      add\n      swap2\n      jump(tag_97)\n    tag_98:\n      dup3\n      add\n      swap2\n      swap1\n      0x00\n      mstore\n      keccak256(0x00, 0x20)\n      swap1\n    tag_99:\n      dup2\n      sload\n      dup2\n      mstore\n      swap1\n      0x01\n      add\n      swap1\n      0x20\n      add\n      dup1\n      dup4\n      gt\n      tag_99\n      jumpi\n      dup3\n      swap1\n      sub\n      0x1f\n      and\n      dup3\n      add\n      swap2\n    tag_97:\n      pop\n      pop\n      pop\n      pop\n      pop\n      dup2\n      mstore\n      pop\n      pop\n      dup2\n      mstore\n      0x20\n      add\n      swap1\n      0x01\n      add\n      swap1\n      jump(tag_82)\n    tag_83:\n      pop\n      pop\n      pop\n      pop\n      swap1\n      pop\n        /* \"contracts/SubWallets.sol\":1100:1198  function getAccounts() public view returns (SubWallet[] memory) {... */\n      swap1\n      jump\t// out\n        /* \"contracts/SubWallets.sol\":224:253  SubWallet[] public subWallets */\n    tag_23:\n      0x00\n      dup2\n      dup2\n      sload\n      dup2\n      lt\n      tag_100\n      jumpi\n      0x00\n      dup1\n      revert\n    tag_100:\n      swap1\n      0x00\n      mstore\n      keccak256(0x00, 0x20)\n      swap1\n      0x04\n      mul\n      add\n      0x00\n      swap2\n      pop\n      swap1\n      pop\n      dup1\n      0x00\n      add\n      0x00\n      swap1\n      sload\n      swap1\n      0x0100\n      exp\n      swap1\n      div\n      0xffffffffffffffffffffffffffffffffffffffff\n      and\n      swap1\n      dup1\n      0x01\n      add\n      dup1\n      sload\n      tag_102\n      swap1\n      tag_55\n      jump\t// in\n    tag_102:\n      dup1\n      0x1f\n      add\n      0x20\n      dup1\n      swap2\n      div\n      mul\n      0x20\n      add\n      mload(0x40)\n      swap1\n      dup2\n      add\n      0x40\n      mstore\n      dup1\n      swap3\n      swap2\n      swap1\n      dup2\n      dup2\n      mstore\n      0x20\n      add\n      dup3\n      dup1\n      sload\n      tag_103\n      swap1\n      tag_55\n      jump\t// in\n    tag_103:\n      dup1\n      iszero\n      tag_104\n      jumpi\n      dup1\n      0x1f\n      lt\n      tag_105\n      jumpi\n      0x0100\n      dup1\n      dup4\n      sload\n      div\n      mul\n      dup4\n      mstore\n      swap2\n      0x20\n      add\n      swap2\n      jump(tag_104)\n    tag_105:\n      dup3\n      add\n      swap2\n      swap1\n      0x00\n      mstore\n      keccak256(0x00, 0x20)\n      swap1\n    tag_106:\n      dup2\n      sload\n      dup2\n      mstore\n      swap1\n      0x01\n      add\n      swap1\n      0x20\n      add\n      dup1\n      dup4\n      gt\n      tag_106\n      jumpi\n      dup3\n      swap1\n      sub\n      0x1f\n      and\n      dup3\n      add\n      swap2\n    tag_104:\n      pop\n      pop\n      pop\n      pop\n      pop\n      swap1\n      dup1\n      0x02\n      add\n      dup1\n      sload\n      tag_107\n      swap1\n      tag_55\n      jump\t// in\n    tag_107:\n      dup1\n      0x1f\n      add\n      0x20\n      dup1\n      swap2\n      div\n      mul\n      0x20\n      add\n      mload(0x40)\n      swap1\n      dup2\n      add\n      0x40\n      mstore\n      dup1\n      swap3\n      swap2\n      swap1\n      dup2\n      dup2\n      mstore\n      0x20\n      add\n      dup3\n      dup1\n      sload\n      tag_108\n      swap1\n      tag_55\n      jump\t// in\n    tag_108:\n      dup1\n      iszero\n      tag_109\n      jumpi\n      dup1\n      0x1f\n      lt\n      tag_110\n      jumpi\n      0x0100\n      dup1\n      dup4\n      sload\n      div\n      mul\n      dup4\n      mstore\n      swap2\n      0x20\n      add\n      swap2\n      jump(tag_109)\n    tag_110:\n      dup3\n      add\n      swap2\n      swap1\n      0x00\n      mstore\n      keccak256(0x00, 0x20)\n      swap1\n    tag_111:\n      dup2\n      sload\n      dup2\n      mstore\n      swap1\n      0x01\n      add\n      swap1\n      0x20\n      add\n      dup1\n      dup4\n      gt\n      tag_111\n      jumpi\n      dup3\n      swap1\n      sub\n      0x1f\n      and\n      dup3\n      add\n      swap2\n    tag_109:\n      pop\n      pop\n      pop\n      pop\n      pop\n      swap1\n      dup1\n      0x03\n      add\n      dup1\n      sload\n      tag_112\n      swap1\n      tag_55\n      jump\t// in\n    tag_112:\n      dup1\n      0x1f\n      add\n      0x20\n      dup1\n      swap2\n      div\n      mul\n      0x20\n      add\n      mload(0x40)\n      swap1\n      dup2\n      add\n      0x40\n      mstore\n      dup1\n      swap3\n      swap2\n      swap1\n      dup2\n      dup2\n      mstore\n      0x20\n      add\n      dup3\n      dup1\n      sload\n      tag_113\n      swap1\n      tag_55\n      jump\t// in\n    tag_113:\n      dup1\n      iszero\n      tag_114\n      jumpi\n      dup1\n      0x1f\n      lt\n      tag_115\n      jumpi\n      0x0100\n      dup1\n      dup4\n      sload\n      div\n      mul\n      dup4\n      mstore\n      swap2\n      0x20\n      add\n      swap2\n      jump(tag_114)\n    tag_115:\n      dup3\n      add\n      swap2\n      swap1\n      0x00\n      mstore\n      keccak256(0x00, 0x20)\n      swap1\n    tag_116:\n      dup2\n      sload\n      dup2\n      mstore\n      swap1\n      0x01\n      add\n      swap1\n      0x20\n      add\n      dup1\n      dup4\n      gt\n      tag_116\n      jumpi\n      dup3\n      swap1\n      sub\n      0x1f\n      and\n      dup3\n      add\n      swap2\n    tag_114:\n      pop\n      pop\n      pop\n      pop\n      pop\n      swap1\n      pop\n      dup5\n      jump\t// out\n    tag_43:\n      mload(0x40)\n      dup1\n      0x80\n      add\n      0x40\n      mstore\n      dup1\n      and(0xffffffffffffffffffffffffffffffffffffffff, 0x00)\n      dup2\n      mstore\n      0x20\n      add\n      0x60\n      dup2\n      mstore\n      0x20\n      add\n      0x60\n      dup2\n      mstore\n      0x20\n      add\n      0x60\n      dup2\n      mstore\n      pop\n      swap1\n      jump\t// out\n        /* \"#utility.yul\":7:82   */\n    tag_117:\n        /* \"#utility.yul\":40:46   */\n      0x00\n        /* \"#utility.yul\":73:75   */\n      0x40\n        /* \"#utility.yul\":67:76   */\n      mload\n        /* \"#utility.yul\":57:76   */\n      swap1\n      pop\n        /* \"#utility.yul\":7:82   */\n      swap1\n      jump\t// out\n        /* \"#utility.yul\":88:205   */\n    tag_118:\n        /* \"#utility.yul\":197:198   */\n      0x00\n        /* \"#utility.yul\":194:195   */\n      dup1\n        /* \"#utility.yul\":187:199   */\n      revert\n        /* \"#utility.yul\":211:328   */\n    tag_119:\n        /* \"#utility.yul\":320:321   */\n      0x00\n        /* \"#utility.yul\":317:318   */\n      dup1\n        /* \"#utility.yul\":310:322   */\n      revert\n        /* \"#utility.yul\":334:460   */\n    tag_120:\n        /* \"#utility.yul\":371:378   */\n      0x00\n        /* \"#utility.yul\":411:453   */\n      0xffffffffffffffffffffffffffffffffffffffff\n        /* \"#utility.yul\":404:409   */\n      dup3\n        /* \"#utility.yul\":400:454   */\n      and\n        /* \"#utility.yul\":389:454   */\n      swap1\n      pop\n        /* \"#utility.yul\":334:460   */\n      swap2\n      swap1\n      pop\n      jump\t// out\n        /* \"#utility.yul\":466:562   */\n    tag_121:\n        /* \"#utility.yul\":503:510   */\n      0x00\n        /* \"#utility.yul\":532:556   */\n      tag_174\n        /* \"#utility.yul\":550:555   */\n      dup3\n        /* \"#utility.yul\":532:556   */\n      tag_120\n      jump\t// in\n    tag_174:\n        /* \"#utility.yul\":521:556   */\n      swap1\n      pop\n        /* \"#utility.yul\":466:562   */\n      swap2\n      swap1\n      pop\n      jump\t// out\n        /* \"#utility.yul\":568:690   */\n    tag_122:\n        /* \"#utility.yul\":641:665   */\n      tag_176\n        /* \"#utility.yul\":659:664   */\n      dup2\n        /* \"#utility.yul\":641:665   */\n      tag_121\n      jump\t// in\n    tag_176:\n        /* \"#utility.yul\":634:639   */\n      dup2\n        /* \"#utility.yul\":631:666   */\n      eq\n        /* \"#utility.yul\":621:684   */\n      tag_177\n      jumpi\n        /* \"#utility.yul\":680:681   */\n      0x00\n        /* \"#utility.yul\":677:678   */\n      dup1\n        /* \"#utility.yul\":670:682   */\n      revert\n        /* \"#utility.yul\":621:684   */\n    tag_177:\n        /* \"#utility.yul\":568:690   */\n      pop\n      jump\t// out\n        /* \"#utility.yul\":696:835   */\n    tag_123:\n        /* \"#utility.yul\":742:747   */\n      0x00\n        /* \"#utility.yul\":780:786   */\n      dup2\n        /* \"#utility.yul\":767:787   */\n      calldataload\n        /* \"#utility.yul\":758:787   */\n      swap1\n      pop\n        /* \"#utility.yul\":796:829   */\n      tag_179\n        /* \"#utility.yul\":823:828   */\n      dup2\n        /* \"#utility.yul\":796:829   */\n      tag_122\n      jump\t// in\n    tag_179:\n        /* \"#utility.yul\":696:835   */\n      swap3\n      swap2\n      pop\n      pop\n      jump\t// out\n        /* \"#utility.yul\":841:1170   */\n    tag_9:\n        /* \"#utility.yul\":900:906   */\n      0x00\n        /* \"#utility.yul\":949:951   */\n      0x20\n        /* \"#utility.yul\":937:946   */\n      dup3\n        /* \"#utility.yul\":928:935   */\n      dup5\n        /* \"#utility.yul\":924:947   */\n      sub\n        /* \"#utility.yul\":920:952   */\n      slt\n        /* \"#utility.yul\":917:1036   */\n      iszero\n      tag_181\n      jumpi\n        /* \"#utility.yul\":955:1034   */\n      tag_182\n      tag_118\n      jump\t// in\n    tag_182:\n        /* \"#utility.yul\":917:1036   */\n    tag_181:\n        /* \"#utility.yul\":1075:1076   */\n      0x00\n        /* \"#utility.yul\":1100:1153   */\n      tag_183\n        /* \"#utility.yul\":1145:1152   */\n      dup5\n        /* \"#utility.yul\":1136:1142   */\n      dup3\n        /* \"#utility.yul\":1125:1134   */\n      dup6\n        /* \"#utility.yul\":1121:1143   */\n      add\n        /* \"#utility.yul\":1100:1153   */\n      tag_123\n      jump\t// in\n    tag_183:\n        /* \"#utility.yul\":1090:1153   */\n      swap2\n      pop\n        /* \"#utility.yul\":1046:1163   */\n      pop\n        /* \"#utility.yul\":841:1170   */\n      swap3\n      swap2\n      pop\n      pop\n      jump\t// out\n        /* \"#utility.yul\":1176:1315   */\n    tag_124:\n        /* \"#utility.yul\":1268:1274   */\n      0x00\n        /* \"#utility.yul\":1302:1307   */\n      dup2\n        /* \"#utility.yul\":1296:1308   */\n      mload\n        /* \"#utility.yul\":1286:1308   */\n      swap1\n      pop\n        /* \"#utility.yul\":1176:1315   */\n      swap2\n      swap1\n      pop\n      jump\t// out\n        /* \"#utility.yul\":1321:1530   */\n    tag_125:\n        /* \"#utility.yul\":1445:1456   */\n      0x00\n        /* \"#utility.yul\":1479:1485   */\n      dup3\n        /* \"#utility.yul\":1474:1477   */\n      dup3\n        /* \"#utility.yul\":1467:1486   */\n      mstore\n        /* \"#utility.yul\":1519:1523   */\n      0x20\n        /* \"#utility.yul\":1514:1517   */\n      dup3\n        /* \"#utility.yul\":1510:1524   */\n      add\n        /* \"#utility.yul\":1495:1524   */\n      swap1\n      pop\n        /* \"#utility.yul\":1321:1530   */\n      swap3\n      swap2\n      pop\n      pop\n      jump\t// out\n        /* \"#utility.yul\":1536:1693   */\n    tag_126:\n        /* \"#utility.yul\":1628:1632   */\n      0x00\n        /* \"#utility.yul\":1651:1654   */\n      dup2\n        /* \"#utility.yul\":1643:1654   */\n      swap1\n      pop\n        /* \"#utility.yul\":1681:1685   */\n      0x20\n        /* \"#utility.yul\":1676:1679   */\n      dup3\n        /* \"#utility.yul\":1672:1686   */\n      add\n        /* \"#utility.yul\":1664:1686   */\n      swap1\n      pop\n        /* \"#utility.yul\":1536:1693   */\n      swap2\n      swap1\n      pop\n      jump\t// out\n        /* \"#utility.yul\":1699:1807   */\n    tag_127:\n        /* \"#utility.yul\":1776:1800   */\n      tag_188\n        /* \"#utility.yul\":1794:1799   */\n      dup2\n        /* \"#utility.yul\":1776:1800   */\n      tag_121\n      jump\t// in\n    tag_188:\n        /* \"#utility.yul\":1771:1774   */\n      dup3\n        /* \"#utility.yul\":1764:1801   */\n      mstore\n        /* \"#utility.yul\":1699:1807   */\n      pop\n      pop\n      jump\t// out\n        /* \"#utility.yul\":1813:1912   */\n    tag_128:\n        /* \"#utility.yul\":1865:1871   */\n      0x00\n        /* \"#utility.yul\":1899:1904   */\n      dup2\n        /* \"#utility.yul\":1893:1905   */\n      mload\n        /* \"#utility.yul\":1883:1905   */\n      swap1\n      pop\n        /* \"#utility.yul\":1813:1912   */\n      swap2\n      swap1\n      pop\n      jump\t// out\n        /* \"#utility.yul\":1918:2077   */\n    tag_129:\n        /* \"#utility.yul\":1992:2003   */\n      0x00\n        /* \"#utility.yul\":2026:2032   */\n      dup3\n        /* \"#utility.yul\":2021:2024   */\n      dup3\n        /* \"#utility.yul\":2014:2033   */\n      mstore\n        /* \"#utility.yul\":2066:2070   */\n      0x20\n        /* \"#utility.yul\":2061:2064   */\n      dup3\n        /* \"#utility.yul\":2057:2071   */\n      add\n        /* \"#utility.yul\":2042:2071   */\n      swap1\n      pop\n        /* \"#utility.yul\":1918:2077   */\n      swap3\n      swap2\n      pop\n      pop\n      jump\t// out\n        /* \"#utility.yul\":2083:2329   */\n    tag_130:\n        /* \"#utility.yul\":2164:2165   */\n      0x00\n        /* \"#utility.yul\":2174:2287   */\n    tag_192:\n        /* \"#utility.yul\":2188:2194   */\n      dup4\n        /* \"#utility.yul\":2185:2186   */\n      dup2\n        /* \"#utility.yul\":2182:2195   */\n      lt\n        /* \"#utility.yul\":2174:2287   */\n      iszero\n      tag_194\n      jumpi\n        /* \"#utility.yul\":2273:2274   */\n      dup1\n        /* \"#utility.yul\":2268:2271   */\n      dup3\n        /* \"#utility.yul\":2264:2275   */\n      add\n        /* \"#utility.yul\":2258:2276   */\n      mload\n        /* \"#utility.yul\":2254:2255   */\n      dup2\n        /* \"#utility.yul\":2249:2252   */\n      dup5\n        /* \"#utility.yul\":2245:2256   */\n      add\n        /* \"#utility.yul\":2238:2277   */\n      mstore\n        /* \"#utility.yul\":2210:2212   */\n      0x20\n        /* \"#utility.yul\":2207:2208   */\n      dup2\n        /* \"#utility.yul\":2203:2213   */\n      add\n        /* \"#utility.yul\":2198:2213   */\n      swap1\n      pop\n        /* \"#utility.yul\":2174:2287   */\n      jump(tag_192)\n    tag_194:\n        /* \"#utility.yul\":2321:2322   */\n      0x00\n        /* \"#utility.yul\":2312:2318   */\n      dup5\n        /* \"#utility.yul\":2307:2310   */\n      dup5\n        /* \"#utility.yul\":2303:2319   */\n      add\n        /* \"#utility.yul\":2296:2323   */\n      mstore\n        /* \"#utility.yul\":2145:2329   */\n      pop\n        /* \"#utility.yul\":2083:2329   */\n      pop\n      pop\n      pop\n      jump\t// out\n        /* \"#utility.yul\":2335:2437   */\n    tag_131:\n        /* \"#utility.yul\":2376:2382   */\n      0x00\n        /* \"#utility.yul\":2427:2429   */\n      0x1f\n        /* \"#utility.yul\":2423:2430   */\n      not\n        /* \"#utility.yul\":2418:2420   */\n      0x1f\n        /* \"#utility.yul\":2411:2416   */\n      dup4\n        /* \"#utility.yul\":2407:2421   */\n      add\n        /* \"#utility.yul\":2403:2431   */\n      and\n        /* \"#utility.yul\":2393:2431   */\n      swap1\n      pop\n        /* \"#utility.yul\":2335:2437   */\n      swap2\n      swap1\n      pop\n      jump\t// out\n        /* \"#utility.yul\":2443:2800   */\n    tag_132:\n        /* \"#utility.yul\":2521:2524   */\n      0x00\n        /* \"#utility.yul\":2549:2588   */\n      tag_197\n        /* \"#utility.yul\":2582:2587   */\n      dup3\n        /* \"#utility.yul\":2549:2588   */\n      tag_128\n      jump\t// in\n    tag_197:\n        /* \"#utility.yul\":2604:2665   */\n      tag_198\n        /* \"#utility.yul\":2658:2664   */\n      dup2\n        /* \"#utility.yul\":2653:2656   */\n      dup6\n        /* \"#utility.yul\":2604:2665   */\n      tag_129\n      jump\t// in\n    tag_198:\n        /* \"#utility.yul\":2597:2665   */\n      swap4\n      pop\n        /* \"#utility.yul\":2674:2739   */\n      tag_199\n        /* \"#utility.yul\":2732:2738   */\n      dup2\n        /* \"#utility.yul\":2727:2730   */\n      dup6\n        /* \"#utility.yul\":2720:2724   */\n      0x20\n        /* \"#utility.yul\":2713:2718   */\n      dup7\n        /* \"#utility.yul\":2709:2725   */\n      add\n        /* \"#utility.yul\":2674:2739   */\n      tag_130\n      jump\t// in\n    tag_199:\n        /* \"#utility.yul\":2764:2793   */\n      tag_200\n        /* \"#utility.yul\":2786:2792   */\n      dup2\n        /* \"#utility.yul\":2764:2793   */\n      tag_131\n      jump\t// in\n    tag_200:\n        /* \"#utility.yul\":2759:2762   */\n      dup5\n        /* \"#utility.yul\":2755:2794   */\n      add\n        /* \"#utility.yul\":2748:2794   */\n      swap2\n      pop\n        /* \"#utility.yul\":2525:2800   */\n      pop\n        /* \"#utility.yul\":2443:2800   */\n      swap3\n      swap2\n      pop\n      pop\n      jump\t// out\n        /* \"#utility.yul\":2872:3984   */\n    tag_133:\n        /* \"#utility.yul\":2981:2984   */\n      0x00\n        /* \"#utility.yul\":3017:3021   */\n      0x80\n        /* \"#utility.yul\":3012:3015   */\n      dup4\n        /* \"#utility.yul\":3008:3022   */\n      add\n        /* \"#utility.yul\":3105:3109   */\n      0x00\n        /* \"#utility.yul\":3098:3103   */\n      dup4\n        /* \"#utility.yul\":3094:3110   */\n      add\n        /* \"#utility.yul\":3088:3111   */\n      mload\n        /* \"#utility.yul\":3124:3187   */\n      tag_202\n        /* \"#utility.yul\":3181:3185   */\n      0x00\n        /* \"#utility.yul\":3176:3179   */\n      dup7\n        /* \"#utility.yul\":3172:3186   */\n      add\n        /* \"#utility.yul\":3158:3170   */\n      dup3\n        /* \"#utility.yul\":3124:3187   */\n      tag_127\n      jump\t// in\n    tag_202:\n        /* \"#utility.yul\":3032:3197   */\n      pop\n        /* \"#utility.yul\":3291:3295   */\n      0x20\n        /* \"#utility.yul\":3284:3289   */\n      dup4\n        /* \"#utility.yul\":3280:3296   */\n      add\n        /* \"#utility.yul\":3274:3297   */\n      mload\n        /* \"#utility.yul\":3344:3347   */\n      dup5\n        /* \"#utility.yul\":3338:3342   */\n      dup3\n        /* \"#utility.yul\":3334:3348   */\n      sub\n        /* \"#utility.yul\":3327:3331   */\n      0x20\n        /* \"#utility.yul\":3322:3325   */\n      dup7\n        /* \"#utility.yul\":3318:3332   */\n      add\n        /* \"#utility.yul\":3311:3349   */\n      mstore\n        /* \"#utility.yul\":3370:3443   */\n      tag_203\n        /* \"#utility.yul\":3438:3442   */\n      dup3\n        /* \"#utility.yul\":3424:3436   */\n      dup3\n        /* \"#utility.yul\":3370:3443   */\n      tag_132\n      jump\t// in\n    tag_203:\n        /* \"#utility.yul\":3362:3443   */\n      swap2\n      pop\n        /* \"#utility.yul\":3207:3454   */\n      pop\n        /* \"#utility.yul\":3539:3543   */\n      0x40\n        /* \"#utility.yul\":3532:3537   */\n      dup4\n        /* \"#utility.yul\":3528:3544   */\n      add\n        /* \"#utility.yul\":3522:3545   */\n      mload\n        /* \"#utility.yul\":3592:3595   */\n      dup5\n        /* \"#utility.yul\":3586:3590   */\n      dup3\n        /* \"#utility.yul\":3582:3596   */\n      sub\n        /* \"#utility.yul\":3575:3579   */\n      0x40\n        /* \"#utility.yul\":3570:3573   */\n      dup7\n        /* \"#utility.yul\":3566:3580   */\n      add\n        /* \"#utility.yul\":3559:3597   */\n      mstore\n        /* \"#utility.yul\":3618:3691   */\n      tag_204\n        /* \"#utility.yul\":3686:3690   */\n      dup3\n        /* \"#utility.yul\":3672:3684   */\n      dup3\n        /* \"#utility.yul\":3618:3691   */\n      tag_132\n      jump\t// in\n    tag_204:\n        /* \"#utility.yul\":3610:3691   */\n      swap2\n      pop\n        /* \"#utility.yul\":3464:3702   */\n      pop\n        /* \"#utility.yul\":3794:3798   */\n      0x60\n        /* \"#utility.yul\":3787:3792   */\n      dup4\n        /* \"#utility.yul\":3783:3799   */\n      add\n        /* \"#utility.yul\":3777:3800   */\n      mload\n        /* \"#utility.yul\":3847:3850   */\n      dup5\n        /* \"#utility.yul\":3841:3845   */\n      dup3\n        /* \"#utility.yul\":3837:3851   */\n      sub\n        /* \"#utility.yul\":3830:3834   */\n      0x60\n        /* \"#utility.yul\":3825:3828   */\n      dup7\n        /* \"#utility.yul\":3821:3835   */\n      add\n        /* \"#utility.yul\":3814:3852   */\n      mstore\n        /* \"#utility.yul\":3873:3946   */\n      tag_205\n        /* \"#utility.yul\":3941:3945   */\n      dup3\n        /* \"#utility.yul\":3927:3939   */\n      dup3\n        /* \"#utility.yul\":3873:3946   */\n      tag_132\n      jump\t// in\n    tag_205:\n        /* \"#utility.yul\":3865:3946   */\n      swap2\n      pop\n        /* \"#utility.yul\":3712:3957   */\n      pop\n        /* \"#utility.yul\":3974:3978   */\n      dup1\n        /* \"#utility.yul\":3967:3978   */\n      swap2\n      pop\n        /* \"#utility.yul\":2986:3984   */\n      pop\n        /* \"#utility.yul\":2872:3984   */\n      swap3\n      swap2\n      pop\n      pop\n      jump\t// out\n        /* \"#utility.yul\":3990:4246   */\n    tag_134:\n        /* \"#utility.yul\":4109:4119   */\n      0x00\n        /* \"#utility.yul\":4144:4240   */\n      tag_207\n        /* \"#utility.yul\":4236:4239   */\n      dup4\n        /* \"#utility.yul\":4228:4234   */\n      dup4\n        /* \"#utility.yul\":4144:4240   */\n      tag_133\n      jump\t// in\n    tag_207:\n        /* \"#utility.yul\":4130:4240   */\n      swap1\n      pop\n        /* \"#utility.yul\":3990:4246   */\n      swap3\n      swap2\n      pop\n      pop\n      jump\t// out\n        /* \"#utility.yul\":4252:4390   */\n    tag_135:\n        /* \"#utility.yul\":4347:4351   */\n      0x00\n        /* \"#utility.yul\":4379:4383   */\n      0x20\n        /* \"#utility.yul\":4374:4377   */\n      dup3\n        /* \"#utility.yul\":4370:4384   */\n      add\n        /* \"#utility.yul\":4362:4384   */\n      swap1\n      pop\n        /* \"#utility.yul\":4252:4390   */\n      swap2\n      swap1\n      pop\n      jump\t// out\n        /* \"#utility.yul\":4466:5577   */\n    tag_136:\n        /* \"#utility.yul\":4635:4638   */\n      0x00\n        /* \"#utility.yul\":4664:4743   */\n      tag_210\n        /* \"#utility.yul\":4737:4742   */\n      dup3\n        /* \"#utility.yul\":4664:4743   */\n      tag_124\n      jump\t// in\n    tag_210:\n        /* \"#utility.yul\":4759:4870   */\n      tag_211\n        /* \"#utility.yul\":4863:4869   */\n      dup2\n        /* \"#utility.yul\":4858:4861   */\n      dup6\n        /* \"#utility.yul\":4759:4870   */\n      tag_125\n      jump\t// in\n    tag_211:\n        /* \"#utility.yul\":4752:4870   */\n      swap4\n      pop\n        /* \"#utility.yul\":4896:4899   */\n      dup4\n        /* \"#utility.yul\":4941:4945   */\n      0x20\n        /* \"#utility.yul\":4933:4939   */\n      dup3\n        /* \"#utility.yul\":4929:4946   */\n      mul\n        /* \"#utility.yul\":4924:4927   */\n      dup6\n        /* \"#utility.yul\":4920:4947   */\n      add\n        /* \"#utility.yul\":4971:5052   */\n      tag_212\n        /* \"#utility.yul\":5046:5051   */\n      dup6\n        /* \"#utility.yul\":4971:5052   */\n      tag_126\n      jump\t// in\n    tag_212:\n        /* \"#utility.yul\":5075:5082   */\n      dup1\n        /* \"#utility.yul\":5106:5107   */\n      0x00\n        /* \"#utility.yul\":5091:5532   */\n    tag_213:\n        /* \"#utility.yul\":5116:5122   */\n      dup6\n        /* \"#utility.yul\":5113:5114   */\n      dup2\n        /* \"#utility.yul\":5110:5123   */\n      lt\n        /* \"#utility.yul\":5091:5532   */\n      iszero\n      tag_215\n      jumpi\n        /* \"#utility.yul\":5187:5196   */\n      dup5\n        /* \"#utility.yul\":5181:5185   */\n      dup5\n        /* \"#utility.yul\":5177:5197   */\n      sub\n        /* \"#utility.yul\":5172:5175   */\n      dup10\n        /* \"#utility.yul\":5165:5198   */\n      mstore\n        /* \"#utility.yul\":5238:5244   */\n      dup2\n        /* \"#utility.yul\":5232:5245   */\n      mload\n        /* \"#utility.yul\":5266:5380   */\n      tag_216\n        /* \"#utility.yul\":5375:5379   */\n      dup6\n        /* \"#utility.yul\":5360:5373   */\n      dup3\n        /* \"#utility.yul\":5266:5380   */\n      tag_134\n      jump\t// in\n    tag_216:\n        /* \"#utility.yul\":5258:5380   */\n      swap5\n      pop\n        /* \"#utility.yul\":5403:5488   */\n      tag_217\n        /* \"#utility.yul\":5481:5487   */\n      dup4\n        /* \"#utility.yul\":5403:5488   */\n      tag_135\n      jump\t// in\n    tag_217:\n        /* \"#utility.yul\":5393:5488   */\n      swap3\n      pop\n        /* \"#utility.yul\":5517:5521   */\n      0x20\n        /* \"#utility.yul\":5512:5515   */\n      dup11\n        /* \"#utility.yul\":5508:5522   */\n      add\n        /* \"#utility.yul\":5501:5522   */\n      swap10\n      pop\n        /* \"#utility.yul\":5151:5532   */\n      pop\n        /* \"#utility.yul\":5138:5139   */\n      0x01\n        /* \"#utility.yul\":5135:5136   */\n      dup2\n        /* \"#utility.yul\":5131:5140   */\n      add\n        /* \"#utility.yul\":5126:5140   */\n      swap1\n      pop\n        /* \"#utility.yul\":5091:5532   */\n      jump(tag_213)\n    tag_215:\n        /* \"#utility.yul\":5095:5109   */\n      pop\n        /* \"#utility.yul\":5548:5552   */\n      dup3\n        /* \"#utility.yul\":5541:5552   */\n      swap8\n      pop\n        /* \"#utility.yul\":5568:5571   */\n      dup8\n        /* \"#utility.yul\":5561:5571   */\n      swap6\n      pop\n        /* \"#utility.yul\":4640:5577   */\n      pop\n      pop\n      pop\n      pop\n      pop\n        /* \"#utility.yul\":4466:5577   */\n      swap3\n      swap2\n      pop\n      pop\n      jump\t// out\n        /* \"#utility.yul\":5583:6056   */\n    tag_12:\n        /* \"#utility.yul\":5776:5780   */\n      0x00\n        /* \"#utility.yul\":5814:5816   */\n      0x20\n        /* \"#utility.yul\":5803:5812   */\n      dup3\n        /* \"#utility.yul\":5799:5817   */\n      add\n        /* \"#utility.yul\":5791:5817   */\n      swap1\n      pop\n        /* \"#utility.yul\":5863:5872   */\n      dup2\n        /* \"#utility.yul\":5857:5861   */\n      dup2\n        /* \"#utility.yul\":5853:5873   */\n      sub\n        /* \"#utility.yul\":5849:5850   */\n      0x00\n        /* \"#utility.yul\":5838:5847   */\n      dup4\n        /* \"#utility.yul\":5834:5851   */\n      add\n        /* \"#utility.yul\":5827:5874   */\n      mstore\n        /* \"#utility.yul\":5891:6049   */\n      tag_219\n        /* \"#utility.yul\":6044:6048   */\n      dup2\n        /* \"#utility.yul\":6035:6041   */\n      dup5\n        /* \"#utility.yul\":5891:6049   */\n      tag_136\n      jump\t// in\n    tag_219:\n        /* \"#utility.yul\":5883:6049   */\n      swap1\n      pop\n        /* \"#utility.yul\":5583:6056   */\n      swap3\n      swap2\n      pop\n      pop\n      jump\t// out\n        /* \"#utility.yul\":6062:6179   */\n    tag_137:\n        /* \"#utility.yul\":6171:6172   */\n      0x00\n        /* \"#utility.yul\":6168:6169   */\n      dup1\n        /* \"#utility.yul\":6161:6173   */\n      revert\n        /* \"#utility.yul\":6185:6302   */\n    tag_138:\n        /* \"#utility.yul\":6294:6295   */\n      0x00\n        /* \"#utility.yul\":6291:6292   */\n      dup1\n        /* \"#utility.yul\":6284:6296   */\n      revert\n        /* \"#utility.yul\":6308:6488   */\n    tag_39:\n        /* \"#utility.yul\":6356:6433   */\n      0x4e487b7100000000000000000000000000000000000000000000000000000000\n        /* \"#utility.yul\":6353:6354   */\n      0x00\n        /* \"#utility.yul\":6346:6434   */\n      mstore\n        /* \"#utility.yul\":6453:6457   */\n      0x41\n        /* \"#utility.yul\":6450:6451   */\n      0x04\n        /* \"#utility.yul\":6443:6458   */\n      mstore\n        /* \"#utility.yul\":6477:6481   */\n      0x24\n        /* \"#utility.yul\":6474:6475   */\n      0x00\n        /* \"#utility.yul\":6467:6482   */\n      revert\n        /* \"#utility.yul\":6494:6775   */\n    tag_139:\n        /* \"#utility.yul\":6577:6604   */\n      tag_224\n        /* \"#utility.yul\":6599:6603   */\n      dup3\n        /* \"#utility.yul\":6577:6604   */\n      tag_131\n      jump\t// in\n    tag_224:\n        /* \"#utility.yul\":6569:6575   */\n      dup2\n        /* \"#utility.yul\":6565:6605   */\n      add\n        /* \"#utility.yul\":6707:6713   */\n      dup2\n        /* \"#utility.yul\":6695:6705   */\n      dup2\n        /* \"#utility.yul\":6692:6714   */\n      lt\n        /* \"#utility.yul\":6671:6689   */\n      0xffffffffffffffff\n        /* \"#utility.yul\":6659:6669   */\n      dup3\n        /* \"#utility.yul\":6656:6690   */\n      gt\n        /* \"#utility.yul\":6653:6715   */\n      or\n        /* \"#utility.yul\":6650:6738   */\n      iszero\n      tag_225\n      jumpi\n        /* \"#utility.yul\":6718:6736   */\n      tag_226\n      tag_39\n      jump\t// in\n    tag_226:\n        /* \"#utility.yul\":6650:6738   */\n    tag_225:\n        /* \"#utility.yul\":6758:6768   */\n      dup1\n        /* \"#utility.yul\":6754:6756   */\n      0x40\n        /* \"#utility.yul\":6747:6769   */\n      mstore\n        /* \"#utility.yul\":6537:6775   */\n      pop\n        /* \"#utility.yul\":6494:6775   */\n      pop\n      pop\n      jump\t// out\n        /* \"#utility.yul\":6781:6910   */\n    tag_140:\n        /* \"#utility.yul\":6815:6821   */\n      0x00\n        /* \"#utility.yul\":6842:6862   */\n      tag_228\n      tag_117\n      jump\t// in\n    tag_228:\n        /* \"#utility.yul\":6832:6862   */\n      swap1\n      pop\n        /* \"#utility.yul\":6871:6904   */\n      tag_229\n        /* \"#utility.yul\":6899:6903   */\n      dup3\n        /* \"#utility.yul\":6891:6897   */\n      dup3\n        /* \"#utility.yul\":6871:6904   */\n      tag_139\n      jump\t// in\n    tag_229:\n        /* \"#utility.yul\":6781:6910   */\n      swap2\n      swap1\n      pop\n      jump\t// out\n        /* \"#utility.yul\":6916:7224   */\n    tag_141:\n        /* \"#utility.yul\":6978:6982   */\n      0x00\n        /* \"#utility.yul\":7068:7086   */\n      0xffffffffffffffff\n        /* \"#utility.yul\":7060:7066   */\n      dup3\n        /* \"#utility.yul\":7057:7087   */\n      gt\n        /* \"#utility.yul\":7054:7110   */\n      iszero\n      tag_231\n      jumpi\n        /* \"#utility.yul\":7090:7108   */\n      tag_232\n      tag_39\n      jump\t// in\n    tag_232:\n        /* \"#utility.yul\":7054:7110   */\n    tag_231:\n        /* \"#utility.yul\":7128:7157   */\n      tag_233\n        /* \"#utility.yul\":7150:7156   */\n      dup3\n        /* \"#utility.yul\":7128:7157   */\n      tag_131\n      jump\t// in\n    tag_233:\n        /* \"#utility.yul\":7120:7157   */\n      swap1\n      pop\n        /* \"#utility.yul\":7212:7216   */\n      0x20\n        /* \"#utility.yul\":7206:7210   */\n      dup2\n        /* \"#utility.yul\":7202:7217   */\n      add\n        /* \"#utility.yul\":7194:7217   */\n      swap1\n      pop\n        /* \"#utility.yul\":6916:7224   */\n      swap2\n      swap1\n      pop\n      jump\t// out\n        /* \"#utility.yul\":7230:7376   */\n    tag_142:\n        /* \"#utility.yul\":7327:7333   */\n      dup3\n        /* \"#utility.yul\":7322:7325   */\n      dup2\n        /* \"#utility.yul\":7317:7320   */\n      dup4\n        /* \"#utility.yul\":7304:7334   */\n      calldatacopy\n        /* \"#utility.yul\":7368:7369   */\n      0x00\n        /* \"#utility.yul\":7359:7365   */\n      dup4\n        /* \"#utility.yul\":7354:7357   */\n      dup4\n        /* \"#utility.yul\":7350:7366   */\n      add\n        /* \"#utility.yul\":7343:7370   */\n      mstore\n        /* \"#utility.yul\":7230:7376   */\n      pop\n      pop\n      pop\n      jump\t// out\n        /* \"#utility.yul\":7382:7807   */\n    tag_143:\n        /* \"#utility.yul\":7460:7465   */\n      0x00\n        /* \"#utility.yul\":7485:7551   */\n      tag_236\n        /* \"#utility.yul\":7501:7550   */\n      tag_237\n        /* \"#utility.yul\":7543:7549   */\n      dup5\n        /* \"#utility.yul\":7501:7550   */\n      tag_141\n      jump\t// in\n    tag_237:\n        /* \"#utility.yul\":7485:7551   */\n      tag_140\n      jump\t// in\n    tag_236:\n        /* \"#utility.yul\":7476:7551   */\n      swap1\n      pop\n        /* \"#utility.yul\":7574:7580   */\n      dup3\n        /* \"#utility.yul\":7567:7572   */\n      dup2\n        /* \"#utility.yul\":7560:7581   */\n      mstore\n        /* \"#utility.yul\":7612:7616   */\n      0x20\n        /* \"#utility.yul\":7605:7610   */\n      dup2\n        /* \"#utility.yul\":7601:7617   */\n      add\n        /* \"#utility.yul\":7650:7653   */\n      dup5\n        /* \"#utility.yul\":7641:7647   */\n      dup5\n        /* \"#utility.yul\":7636:7639   */\n      dup5\n        /* \"#utility.yul\":7632:7648   */\n      add\n        /* \"#utility.yul\":7629:7654   */\n      gt\n        /* \"#utility.yul\":7626:7738   */\n      iszero\n      tag_238\n      jumpi\n        /* \"#utility.yul\":7657:7736   */\n      tag_239\n      tag_138\n      jump\t// in\n    tag_239:\n        /* \"#utility.yul\":7626:7738   */\n    tag_238:\n        /* \"#utility.yul\":7747:7801   */\n      tag_240\n        /* \"#utility.yul\":7794:7800   */\n      dup5\n        /* \"#utility.yul\":7789:7792   */\n      dup3\n        /* \"#utility.yul\":7784:7787   */\n      dup6\n        /* \"#utility.yul\":7747:7801   */\n      tag_142\n      jump\t// in\n    tag_240:\n        /* \"#utility.yul\":7466:7807   */\n      pop\n        /* \"#utility.yul\":7382:7807   */\n      swap4\n      swap3\n      pop\n      pop\n      pop\n      jump\t// out\n        /* \"#utility.yul\":7827:8167   */\n    tag_144:\n        /* \"#utility.yul\":7883:7888   */\n      0x00\n        /* \"#utility.yul\":7932:7935   */\n      dup3\n        /* \"#utility.yul\":7925:7929   */\n      0x1f\n        /* \"#utility.yul\":7917:7923   */\n      dup4\n        /* \"#utility.yul\":7913:7930   */\n      add\n        /* \"#utility.yul\":7909:7936   */\n      slt\n        /* \"#utility.yul\":7899:8021   */\n      tag_242\n      jumpi\n        /* \"#utility.yul\":7940:8019   */\n      tag_243\n      tag_137\n      jump\t// in\n    tag_243:\n        /* \"#utility.yul\":7899:8021   */\n    tag_242:\n        /* \"#utility.yul\":8057:8063   */\n      dup2\n        /* \"#utility.yul\":8044:8064   */\n      calldataload\n        /* \"#utility.yul\":8082:8161   */\n      tag_244\n        /* \"#utility.yul\":8157:8160   */\n      dup5\n        /* \"#utility.yul\":8149:8155   */\n      dup3\n        /* \"#utility.yul\":8142:8146   */\n      0x20\n        /* \"#utility.yul\":8134:8140   */\n      dup7\n        /* \"#utility.yul\":8130:8147   */\n      add\n        /* \"#utility.yul\":8082:8161   */\n      tag_143\n      jump\t// in\n    tag_244:\n        /* \"#utility.yul\":8073:8161   */\n      swap2\n      pop\n        /* \"#utility.yul\":7889:8167   */\n      pop\n        /* \"#utility.yul\":7827:8167   */\n      swap3\n      swap2\n      pop\n      pop\n      jump\t// out\n        /* \"#utility.yul\":8173:9332   */\n    tag_15:\n        /* \"#utility.yul\":8280:8286   */\n      0x00\n        /* \"#utility.yul\":8288:8294   */\n      dup1\n        /* \"#utility.yul\":8296:8302   */\n      0x00\n        /* \"#utility.yul\":8345:8347   */\n      0x60\n        /* \"#utility.yul\":8333:8342   */\n      dup5\n        /* \"#utility.yul\":8324:8331   */\n      dup7\n        /* \"#utility.yul\":8320:8343   */\n      sub\n        /* \"#utility.yul\":8316:8348   */\n      slt\n        /* \"#utility.yul\":8313:8432   */\n      iszero\n      tag_246\n      jumpi\n        /* \"#utility.yul\":8351:8430   */\n      tag_247\n      tag_118\n      jump\t// in\n    tag_247:\n        /* \"#utility.yul\":8313:8432   */\n    tag_246:\n        /* \"#utility.yul\":8499:8500   */\n      0x00\n        /* \"#utility.yul\":8488:8497   */\n      dup5\n        /* \"#utility.yul\":8484:8501   */\n      add\n        /* \"#utility.yul\":8471:8502   */\n      calldataload\n        /* \"#utility.yul\":8529:8547   */\n      0xffffffffffffffff\n        /* \"#utility.yul\":8521:8527   */\n      dup2\n        /* \"#utility.yul\":8518:8548   */\n      gt\n        /* \"#utility.yul\":8515:8632   */\n      iszero\n      tag_248\n      jumpi\n        /* \"#utility.yul\":8551:8630   */\n      tag_249\n      tag_119\n      jump\t// in\n    tag_249:\n        /* \"#utility.yul\":8515:8632   */\n    tag_248:\n        /* \"#utility.yul\":8656:8719   */\n      tag_250\n        /* \"#utility.yul\":8711:8718   */\n      dup7\n        /* \"#utility.yul\":8702:8708   */\n      dup3\n        /* \"#utility.yul\":8691:8700   */\n      dup8\n        /* \"#utility.yul\":8687:8709   */\n      add\n        /* \"#utility.yul\":8656:8719   */\n      tag_144\n      jump\t// in\n    tag_250:\n        /* \"#utility.yul\":8646:8719   */\n      swap4\n      pop\n        /* \"#utility.yul\":8442:8729   */\n      pop\n        /* \"#utility.yul\":8796:8798   */\n      0x20\n        /* \"#utility.yul\":8785:8794   */\n      dup5\n        /* \"#utility.yul\":8781:8799   */\n      add\n        /* \"#utility.yul\":8768:8800   */\n      calldataload\n        /* \"#utility.yul\":8827:8845   */\n      0xffffffffffffffff\n        /* \"#utility.yul\":8819:8825   */\n      dup2\n        /* \"#utility.yul\":8816:8846   */\n      gt\n        /* \"#utility.yul\":8813:8930   */\n      iszero\n      tag_251\n      jumpi\n        /* \"#utility.yul\":8849:8928   */\n      tag_252\n      tag_119\n      jump\t// in\n    tag_252:\n        /* \"#utility.yul\":8813:8930   */\n    tag_251:\n        /* \"#utility.yul\":8954:9017   */\n      tag_253\n        /* \"#utility.yul\":9009:9016   */\n      dup7\n        /* \"#utility.yul\":9000:9006   */\n      dup3\n        /* \"#utility.yul\":8989:8998   */\n      dup8\n        /* \"#utility.yul\":8985:9007   */\n      add\n        /* \"#utility.yul\":8954:9017   */\n      tag_144\n      jump\t// in\n    tag_253:\n        /* \"#utility.yul\":8944:9017   */\n      swap3\n      pop\n        /* \"#utility.yul\":8739:9027   */\n      pop\n        /* \"#utility.yul\":9094:9096   */\n      0x40\n        /* \"#utility.yul\":9083:9092   */\n      dup5\n        /* \"#utility.yul\":9079:9097   */\n      add\n        /* \"#utility.yul\":9066:9098   */\n      calldataload\n        /* \"#utility.yul\":9125:9143   */\n      0xffffffffffffffff\n        /* \"#utility.yul\":9117:9123   */\n      dup2\n        /* \"#utility.yul\":9114:9144   */\n      gt\n        /* \"#utility.yul\":9111:9228   */\n      iszero\n      tag_254\n      jumpi\n        /* \"#utility.yul\":9147:9226   */\n      tag_255\n      tag_119\n      jump\t// in\n    tag_255:\n        /* \"#utility.yul\":9111:9228   */\n    tag_254:\n        /* \"#utility.yul\":9252:9315   */\n      tag_256\n        /* \"#utility.yul\":9307:9314   */\n      dup7\n        /* \"#utility.yul\":9298:9304   */\n      dup3\n        /* \"#utility.yul\":9287:9296   */\n      dup8\n        /* \"#utility.yul\":9283:9305   */\n      add\n        /* \"#utility.yul\":9252:9315   */\n      tag_144\n      jump\t// in\n    tag_256:\n        /* \"#utility.yul\":9242:9315   */\n      swap2\n      pop\n        /* \"#utility.yul\":9037:9325   */\n      pop\n        /* \"#utility.yul\":8173:9332   */\n      swap3\n      pop\n      swap3\n      pop\n      swap3\n      jump\t// out\n        /* \"#utility.yul\":9338:9415   */\n    tag_145:\n        /* \"#utility.yul\":9375:9382   */\n      0x00\n        /* \"#utility.yul\":9404:9409   */\n      dup2\n        /* \"#utility.yul\":9393:9409   */\n      swap1\n      pop\n        /* \"#utility.yul\":9338:9415   */\n      swap2\n      swap1\n      pop\n      jump\t// out\n        /* \"#utility.yul\":9421:9543   */\n    tag_146:\n        /* \"#utility.yul\":9494:9518   */\n      tag_259\n        /* \"#utility.yul\":9512:9517   */\n      dup2\n        /* \"#utility.yul\":9494:9518   */\n      tag_145\n      jump\t// in\n    tag_259:\n        /* \"#utility.yul\":9487:9492   */\n      dup2\n        /* \"#utility.yul\":9484:9519   */\n      eq\n        /* \"#utility.yul\":9474:9537   */\n      tag_260\n      jumpi\n        /* \"#utility.yul\":9533:9534   */\n      0x00\n        /* \"#utility.yul\":9530:9531   */\n      dup1\n        /* \"#utility.yul\":9523:9535   */\n      revert\n        /* \"#utility.yul\":9474:9537   */\n    tag_260:\n        /* \"#utility.yul\":9421:9543   */\n      pop\n      jump\t// out\n        /* \"#utility.yul\":9549:9688   */\n    tag_147:\n        /* \"#utility.yul\":9595:9600   */\n      0x00\n        /* \"#utility.yul\":9633:9639   */\n      dup2\n        /* \"#utility.yul\":9620:9640   */\n      calldataload\n        /* \"#utility.yul\":9611:9640   */\n      swap1\n      pop\n        /* \"#utility.yul\":9649:9682   */\n      tag_262\n        /* \"#utility.yul\":9676:9681   */\n      dup2\n        /* \"#utility.yul\":9649:9682   */\n      tag_146\n      jump\t// in\n    tag_262:\n        /* \"#utility.yul\":9549:9688   */\n      swap3\n      swap2\n      pop\n      pop\n      jump\t// out\n        /* \"#utility.yul\":9694:10023   */\n    tag_22:\n        /* \"#utility.yul\":9753:9759   */\n      0x00\n        /* \"#utility.yul\":9802:9804   */\n      0x20\n        /* \"#utility.yul\":9790:9799   */\n      dup3\n        /* \"#utility.yul\":9781:9788   */\n      dup5\n        /* \"#utility.yul\":9777:9800   */\n      sub\n        /* \"#utility.yul\":9773:9805   */\n      slt\n        /* \"#utility.yul\":9770:9889   */\n      iszero\n      tag_264\n      jumpi\n        /* \"#utility.yul\":9808:9887   */\n      tag_265\n      tag_118\n      jump\t// in\n    tag_265:\n        /* \"#utility.yul\":9770:9889   */\n    tag_264:\n        /* \"#utility.yul\":9928:9929   */\n      0x00\n        /* \"#utility.yul\":9953:10006   */\n      tag_266\n        /* \"#utility.yul\":9998:10005   */\n      dup5\n        /* \"#utility.yul\":9989:9995   */\n      dup3\n        /* \"#utility.yul\":9978:9987   */\n      dup6\n        /* \"#utility.yul\":9974:9996   */\n      add\n        /* \"#utility.yul\":9953:10006   */\n      tag_147\n      jump\t// in\n    tag_266:\n        /* \"#utility.yul\":9943:10006   */\n      swap2\n      pop\n        /* \"#utility.yul\":9899:10016   */\n      pop\n        /* \"#utility.yul\":9694:10023   */\n      swap3\n      swap2\n      pop\n      pop\n      jump\t// out\n        /* \"#utility.yul\":10029:10147   */\n    tag_148:\n        /* \"#utility.yul\":10116:10140   */\n      tag_268\n        /* \"#utility.yul\":10134:10139   */\n      dup2\n        /* \"#utility.yul\":10116:10140   */\n      tag_121\n      jump\t// in\n    tag_268:\n        /* \"#utility.yul\":10111:10114   */\n      dup3\n        /* \"#utility.yul\":10104:10141   */\n      mstore\n        /* \"#utility.yul\":10029:10147   */\n      pop\n      pop\n      jump\t// out\n        /* \"#utility.yul\":10153:10322   */\n    tag_149:\n        /* \"#utility.yul\":10237:10248   */\n      0x00\n        /* \"#utility.yul\":10271:10277   */\n      dup3\n        /* \"#utility.yul\":10266:10269   */\n      dup3\n        /* \"#utility.yul\":10259:10278   */\n      mstore\n        /* \"#utility.yul\":10311:10315   */\n      0x20\n        /* \"#utility.yul\":10306:10309   */\n      dup3\n        /* \"#utility.yul\":10302:10316   */\n      add\n        /* \"#utility.yul\":10287:10316   */\n      swap1\n      pop\n        /* \"#utility.yul\":10153:10322   */\n      swap3\n      swap2\n      pop\n      pop\n      jump\t// out\n        /* \"#utility.yul\":10328:10705   */\n    tag_150:\n        /* \"#utility.yul\":10416:10419   */\n      0x00\n        /* \"#utility.yul\":10444:10483   */\n      tag_271\n        /* \"#utility.yul\":10477:10482   */\n      dup3\n        /* \"#utility.yul\":10444:10483   */\n      tag_128\n      jump\t// in\n    tag_271:\n        /* \"#utility.yul\":10499:10570   */\n      tag_272\n        /* \"#utility.yul\":10563:10569   */\n      dup2\n        /* \"#utility.yul\":10558:10561   */\n      dup6\n        /* \"#utility.yul\":10499:10570   */\n      tag_149\n      jump\t// in\n    tag_272:\n        /* \"#utility.yul\":10492:10570   */\n      swap4\n      pop\n        /* \"#utility.yul\":10579:10644   */\n      tag_273\n        /* \"#utility.yul\":10637:10643   */\n      dup2\n        /* \"#utility.yul\":10632:10635   */\n      dup6\n        /* \"#utility.yul\":10625:10629   */\n      0x20\n        /* \"#utility.yul\":10618:10623   */\n      dup7\n        /* \"#utility.yul\":10614:10630   */\n      add\n        /* \"#utility.yul\":10579:10644   */\n      tag_130\n      jump\t// in\n    tag_273:\n        /* \"#utility.yul\":10669:10698   */\n      tag_274\n        /* \"#utility.yul\":10691:10697   */\n      dup2\n        /* \"#utility.yul\":10669:10698   */\n      tag_131\n      jump\t// in\n    tag_274:\n        /* \"#utility.yul\":10664:10667   */\n      dup5\n        /* \"#utility.yul\":10660:10699   */\n      add\n        /* \"#utility.yul\":10653:10699   */\n      swap2\n      pop\n        /* \"#utility.yul\":10420:10705   */\n      pop\n        /* \"#utility.yul\":10328:10705   */\n      swap3\n      swap2\n      pop\n      pop\n      jump\t// out\n        /* \"#utility.yul\":10711:11537   */\n    tag_25:\n        /* \"#utility.yul\":10948:10952   */\n      0x00\n        /* \"#utility.yul\":10986:10989   */\n      0x80\n        /* \"#utility.yul\":10975:10984   */\n      dup3\n        /* \"#utility.yul\":10971:10990   */\n      add\n        /* \"#utility.yul\":10963:10990   */\n      swap1\n      pop\n        /* \"#utility.yul\":11000:11071   */\n      tag_276\n        /* \"#utility.yul\":11068:11069   */\n      0x00\n        /* \"#utility.yul\":11057:11066   */\n      dup4\n        /* \"#utility.yul\":11053:11070   */\n      add\n        /* \"#utility.yul\":11044:11050   */\n      dup8\n        /* \"#utility.yul\":11000:11071   */\n      tag_148\n      jump\t// in\n    tag_276:\n        /* \"#utility.yul\":11118:11127   */\n      dup2\n        /* \"#utility.yul\":11112:11116   */\n      dup2\n        /* \"#utility.yul\":11108:11128   */\n      sub\n        /* \"#utility.yul\":11103:11105   */\n      0x20\n        /* \"#utility.yul\":11092:11101   */\n      dup4\n        /* \"#utility.yul\":11088:11106   */\n      add\n        /* \"#utility.yul\":11081:11129   */\n      mstore\n        /* \"#utility.yul\":11146:11224   */\n      tag_277\n        /* \"#utility.yul\":11219:11223   */\n      dup2\n        /* \"#utility.yul\":11210:11216   */\n      dup7\n        /* \"#utility.yul\":11146:11224   */\n      tag_150\n      jump\t// in\n    tag_277:\n        /* \"#utility.yul\":11138:11224   */\n      swap1\n      pop\n        /* \"#utility.yul\":11271:11280   */\n      dup2\n        /* \"#utility.yul\":11265:11269   */\n      dup2\n        /* \"#utility.yul\":11261:11281   */\n      sub\n        /* \"#utility.yul\":11256:11258   */\n      0x40\n        /* \"#utility.yul\":11245:11254   */\n      dup4\n        /* \"#utility.yul\":11241:11259   */\n      add\n        /* \"#utility.yul\":11234:11282   */\n      mstore\n        /* \"#utility.yul\":11299:11377   */\n      tag_278\n        /* \"#utility.yul\":11372:11376   */\n      dup2\n        /* \"#utility.yul\":11363:11369   */\n      dup6\n        /* \"#utility.yul\":11299:11377   */\n      tag_150\n      jump\t// in\n    tag_278:\n        /* \"#utility.yul\":11291:11377   */\n      swap1\n      pop\n        /* \"#utility.yul\":11424:11433   */\n      dup2\n        /* \"#utility.yul\":11418:11422   */\n      dup2\n        /* \"#utility.yul\":11414:11434   */\n      sub\n        /* \"#utility.yul\":11409:11411   */\n      0x60\n        /* \"#utility.yul\":11398:11407   */\n      dup4\n        /* \"#utility.yul\":11394:11412   */\n      add\n        /* \"#utility.yul\":11387:11435   */\n      mstore\n        /* \"#utility.yul\":11452:11530   */\n      tag_279\n        /* \"#utility.yul\":11525:11529   */\n      dup2\n        /* \"#utility.yul\":11516:11522   */\n      dup5\n        /* \"#utility.yul\":11452:11530   */\n      tag_150\n      jump\t// in\n    tag_279:\n        /* \"#utility.yul\":11444:11530   */\n      swap1\n      pop\n        /* \"#utility.yul\":10711:11537   */\n      swap6\n      swap5\n      pop\n      pop\n      pop\n      pop\n      pop\n      jump\t// out\n        /* \"#utility.yul\":11543:11723   */\n    tag_32:\n        /* \"#utility.yul\":11591:11668   */\n      0x4e487b7100000000000000000000000000000000000000000000000000000000\n        /* \"#utility.yul\":11588:11589   */\n      0x00\n        /* \"#utility.yul\":11581:11669   */\n      mstore\n        /* \"#utility.yul\":11688:11692   */\n      0x32\n        /* \"#utility.yul\":11685:11686   */\n      0x04\n        /* \"#utility.yul\":11678:11693   */\n      mstore\n        /* \"#utility.yul\":11712:11716   */\n      0x24\n        /* \"#utility.yul\":11709:11710   */\n      0x00\n        /* \"#utility.yul\":11702:11717   */\n      revert\n        /* \"#utility.yul\":11729:11909   */\n    tag_151:\n        /* \"#utility.yul\":11777:11854   */\n      0x4e487b7100000000000000000000000000000000000000000000000000000000\n        /* \"#utility.yul\":11774:11775   */\n      0x00\n        /* \"#utility.yul\":11767:11855   */\n      mstore\n        /* \"#utility.yul\":11874:11878   */\n      0x11\n        /* \"#utility.yul\":11871:11872   */\n      0x04\n        /* \"#utility.yul\":11864:11879   */\n      mstore\n        /* \"#utility.yul\":11898:11902   */\n      0x24\n        /* \"#utility.yul\":11895:11896   */\n      0x00\n        /* \"#utility.yul\":11888:11903   */\n      revert\n        /* \"#utility.yul\":11915:12148   */\n    tag_36:\n        /* \"#utility.yul\":11954:11957   */\n      0x00\n        /* \"#utility.yul\":11977:12001   */\n      tag_283\n        /* \"#utility.yul\":11995:12000   */\n      dup3\n        /* \"#utility.yul\":11977:12001   */\n      tag_145\n      jump\t// in\n    tag_283:\n        /* \"#utility.yul\":11968:12001   */\n      swap2\n      pop\n        /* \"#utility.yul\":12023:12089   */\n      0xffffffffffffffffffffffffffffffffffffffffffffffffffffffffffffffff\n        /* \"#utility.yul\":12016:12021   */\n      dup3\n        /* \"#utility.yul\":12013:12090   */\n      sub\n        /* \"#utility.yul\":12010:12113   */\n      tag_284\n      jumpi\n        /* \"#utility.yul\":12093:12111   */\n      tag_285\n      tag_151\n      jump\t// in\n    tag_285:\n        /* \"#utility.yul\":12010:12113   */\n    tag_284:\n        /* \"#utility.yul\":12140:12141   */\n      0x01\n        /* \"#utility.yul\":12133:12138   */\n      dup3\n        /* \"#utility.yul\":12129:12142   */\n      add\n        /* \"#utility.yul\":12122:12142   */\n      swap1\n      pop\n        /* \"#utility.yul\":11915:12148   */\n      swap2\n      swap1\n      pop\n      jump\t// out\n        /* \"#utility.yul\":12154:12334   */\n    tag_152:\n        /* \"#utility.yul\":12202:12279   */\n      0x4e487b7100000000000000000000000000000000000000000000000000000000\n        /* \"#utility.yul\":12199:12200   */\n      0x00\n        /* \"#utility.yul\":12192:12280   */\n      mstore\n        /* \"#utility.yul\":12299:12303   */\n      0x22\n        /* \"#utility.yul\":12296:12297   */\n      0x04\n        /* \"#utility.yul\":12289:12304   */\n      mstore\n        /* \"#utility.yul\":12323:12327   */\n      0x24\n        /* \"#utility.yul\":12320:12321   */\n      0x00\n        /* \"#utility.yul\":12313:12328   */\n      revert\n        /* \"#utility.yul\":12340:12660   */\n    tag_55:\n        /* \"#utility.yul\":12384:12390   */\n      0x00\n        /* \"#utility.yul\":12421:12422   */\n      0x02\n        /* \"#utility.yul\":12415:12419   */\n      dup3\n        /* \"#utility.yul\":12411:12423   */\n      div\n        /* \"#utility.yul\":12401:12423   */\n      swap1\n      pop\n        /* \"#utility.yul\":12468:12469   */\n      0x01\n        /* \"#utility.yul\":12462:12466   */\n      dup3\n        /* \"#utility.yul\":12458:12470   */\n      and\n        /* \"#utility.yul\":12489:12507   */\n      dup1\n        /* \"#utility.yul\":12479:12560   */\n      tag_288\n      jumpi\n        /* \"#utility.yul\":12545:12549   */\n      0x7f\n        /* \"#utility.yul\":12537:12543   */\n      dup3\n        /* \"#utility.yul\":12533:12550   */\n      and\n        /* \"#utility.yul\":12523:12550   */\n      swap2\n      pop\n        /* \"#utility.yul\":12479:12560   */\n    tag_288:\n        /* \"#utility.yul\":12607:12609   */\n      0x20\n        /* \"#utility.yul\":12599:12605   */\n      dup3\n        /* \"#utility.yul\":12596:12610   */\n      lt\n        /* \"#utility.yul\":12576:12594   */\n      dup2\n        /* \"#utility.yul\":12573:12611   */\n      sub\n        /* \"#utility.yul\":12570:12654   */\n      tag_289\n      jumpi\n        /* \"#utility.yul\":12626:12644   */\n      tag_290\n      tag_152\n      jump\t// in\n    tag_290:\n        /* \"#utility.yul\":12570:12654   */\n    tag_289:\n        /* \"#utility.yul\":12391:12660   */\n      pop\n        /* \"#utility.yul\":12340:12660   */\n      swap2\n      swap1\n      pop\n      jump\t// out\n        /* \"#utility.yul\":12666:12807   */\n    tag_153:\n        /* \"#utility.yul\":12715:12719   */\n      0x00\n        /* \"#utility.yul\":12738:12741   */\n      dup2\n        /* \"#utility.yul\":12730:12741   */\n      swap1\n      pop\n        /* \"#utility.yul\":12761:12764   */\n      dup2\n        /* \"#utility.yul\":12758:12759   */\n      0x00\n        /* \"#utility.yul\":12751:12765   */\n      mstore\n        /* \"#utility.yul\":12795:12799   */\n      0x20\n        /* \"#utility.yul\":12792:12793   */\n      0x00\n        /* \"#utility.yul\":12782:12800   */\n      keccak256\n        /* \"#utility.yul\":12774:12800   */\n      swap1\n      pop\n        /* \"#utility.yul\":12666:12807   */\n      swap2\n      swap1\n      pop\n      jump\t// out\n        /* \"#utility.yul\":12813:12906   */\n    tag_154:\n        /* \"#utility.yul\":12850:12856   */\n      0x00\n        /* \"#utility.yul\":12897:12899   */\n      0x20\n        /* \"#utility.yul\":12892:12894   */\n      0x1f\n        /* \"#utility.yul\":12885:12890   */\n      dup4\n        /* \"#utility.yul\":12881:12895   */\n      add\n        /* \"#utility.yul\":12877:12900   */\n      div\n        /* \"#utility.yul\":12867:12900   */\n      swap1\n      pop\n        /* \"#utility.yul\":12813:12906   */\n      swap2\n      swap1\n      pop\n      jump\t// out\n        /* \"#utility.yul\":12912:13019   */\n    tag_155:\n        /* \"#utility.yul\":12956:12964   */\n      0x00\n        /* \"#utility.yul\":13006:13011   */\n      dup3\n        /* \"#utility.yul\":13000:13004   */\n      dup3\n        /* \"#utility.yul\":12996:13012   */\n      shl\n        /* \"#utility.yul\":12975:13012   */\n      swap1\n      pop\n        /* \"#utility.yul\":12912:13019   */\n      swap3\n      swap2\n      pop\n      pop\n      jump\t// out\n        /* \"#utility.yul\":13025:13418   */\n    tag_156:\n        /* \"#utility.yul\":13094:13100   */\n      0x00\n        /* \"#utility.yul\":13144:13145   */\n      0x08\n        /* \"#utility.yul\":13132:13142   */\n      dup4\n        /* \"#utility.yul\":13128:13146   */\n      mul\n        /* \"#utility.yul\":13167:13264   */\n      tag_295\n        /* \"#utility.yul\":13197:13263   */\n      0xffffffffffffffffffffffffffffffffffffffffffffffffffffffffffffffff\n        /* \"#utility.yul\":13186:13195   */\n      dup3\n        /* \"#utility.yul\":13167:13264   */\n      tag_155\n      jump\t// in\n    tag_295:\n        /* \"#utility.yul\":13285:13324   */\n      tag_296\n        /* \"#utility.yul\":13315:13323   */\n      dup7\n        /* \"#utility.yul\":13304:13313   */\n      dup4\n        /* \"#utility.yul\":13285:13324   */\n      tag_155\n      jump\t// in\n    tag_296:\n        /* \"#utility.yul\":13273:13324   */\n      swap6\n      pop\n        /* \"#utility.yul\":13357:13361   */\n      dup1\n        /* \"#utility.yul\":13353:13362   */\n      not\n        /* \"#utility.yul\":13346:13351   */\n      dup5\n        /* \"#utility.yul\":13342:13363   */\n      and\n        /* \"#utility.yul\":13333:13363   */\n      swap4\n      pop\n        /* \"#utility.yul\":13406:13410   */\n      dup1\n        /* \"#utility.yul\":13396:13404   */\n      dup7\n        /* \"#utility.yul\":13392:13411   */\n      and\n        /* \"#utility.yul\":13385:13390   */\n      dup5\n        /* \"#utility.yul\":13382:13412   */\n      or\n        /* \"#utility.yul\":13372:13412   */\n      swap3\n      pop\n        /* \"#utility.yul\":13101:13418   */\n      pop\n      pop\n        /* \"#utility.yul\":13025:13418   */\n      swap4\n      swap3\n      pop\n      pop\n      pop\n      jump\t// out\n        /* \"#utility.yul\":13424:13484   */\n    tag_157:\n        /* \"#utility.yul\":13452:13455   */\n      0x00\n        /* \"#utility.yul\":13473:13478   */\n      dup2\n        /* \"#utility.yul\":13466:13478   */\n      swap1\n      pop\n        /* \"#utility.yul\":13424:13484   */\n      swap2\n      swap1\n      pop\n      jump\t// out\n        /* \"#utility.yul\":13490:13632   */\n    tag_158:\n        /* \"#utility.yul\":13540:13549   */\n      0x00\n        /* \"#utility.yul\":13573:13626   */\n      tag_299\n        /* \"#utility.yul\":13591:13625   */\n      tag_300\n        /* \"#utility.yul\":13600:13624   */\n      tag_301\n        /* \"#utility.yul\":13618:13623   */\n      dup5\n        /* \"#utility.yul\":13600:13624   */\n      tag_145\n      jump\t// in\n    tag_301:\n        /* \"#utility.yul\":13591:13625   */\n      tag_157\n      jump\t// in\n    tag_300:\n        /* \"#utility.yul\":13573:13626   */\n      tag_145\n      jump\t// in\n    tag_299:\n        /* \"#utility.yul\":13560:13626   */\n      swap1\n      pop\n        /* \"#utility.yul\":13490:13632   */\n      swap2\n      swap1\n      pop\n      jump\t// out\n        /* \"#utility.yul\":13638:13713   */\n    tag_159:\n        /* \"#utility.yul\":13681:13684   */\n      0x00\n        /* \"#utility.yul\":13702:13707   */\n      dup2\n        /* \"#utility.yul\":13695:13707   */\n      swap1\n      pop\n        /* \"#utility.yul\":13638:13713   */\n      swap2\n      swap1\n      pop\n      jump\t// out\n        /* \"#utility.yul\":13719:13988   */\n    tag_160:\n        /* \"#utility.yul\":13829:13868   */\n      tag_304\n        /* \"#utility.yul\":13860:13867   */\n      dup4\n        /* \"#utility.yul\":13829:13868   */\n      tag_158\n      jump\t// in\n    tag_304:\n        /* \"#utility.yul\":13890:13981   */\n      tag_305\n        /* \"#utility.yul\":13939:13980   */\n      tag_306\n        /* \"#utility.yul\":13963:13979   */\n      dup3\n        /* \"#utility.yul\":13939:13980   */\n      tag_159\n      jump\t// in\n    tag_306:\n        /* \"#utility.yul\":13931:13937   */\n      dup5\n        /* \"#utility.yul\":13924:13928   */\n      dup5\n        /* \"#utility.yul\":13918:13929   */\n      sload\n        /* \"#utility.yul\":13890:13981   */\n      tag_156\n      jump\t// in\n    tag_305:\n        /* \"#utility.yul\":13884:13888   */\n      dup3\n        /* \"#utility.yul\":13877:13982   */\n      sstore\n        /* \"#utility.yul\":13795:13988   */\n      pop\n        /* \"#utility.yul\":13719:13988   */\n      pop\n      pop\n      pop\n      jump\t// out\n        /* \"#utility.yul\":13994:14067   */\n    tag_161:\n        /* \"#utility.yul\":14039:14042   */\n      0x00\n        /* \"#utility.yul\":13994:14067   */\n      swap1\n      jump\t// out\n        /* \"#utility.yul\":14073:14262   */\n    tag_162:\n        /* \"#utility.yul\":14150:14182   */\n      tag_309\n      tag_161\n      jump\t// in\n    tag_309:\n        /* \"#utility.yul\":14191:14256   */\n      tag_310\n        /* \"#utility.yul\":14249:14255   */\n      dup2\n        /* \"#utility.yul\":14241:14247   */\n      dup5\n        /* \"#utility.yul\":14235:14239   */\n      dup5\n        /* \"#utility.yul\":14191:14256   */\n      tag_160\n      jump\t// in\n    tag_310:\n        /* \"#utility.yul\":14126:14262   */\n      pop\n        /* \"#utility.yul\":14073:14262   */\n      pop\n      pop\n      jump\t// out\n        /* \"#utility.yul\":14268:14454   */\n    tag_163:\n        /* \"#utility.yul\":14328:14448   */\n    tag_312:\n        /* \"#utility.yul\":14345:14348   */\n      dup2\n        /* \"#utility.yul\":14338:14343   */\n      dup2\n        /* \"#utility.yul\":14335:14349   */\n      lt\n        /* \"#utility.yul\":14328:14448   */\n      iszero\n      tag_314\n      jumpi\n        /* \"#utility.yul\":14399:14438   */\n      tag_315\n        /* \"#utility.yul\":14436:14437   */\n      0x00\n        /* \"#utility.yul\":14429:14434   */\n      dup3\n        /* \"#utility.yul\":14399:14438   */\n      tag_162\n      jump\t// in\n    tag_315:\n        /* \"#utility.yul\":14372:14373   */\n      0x01\n        /* \"#utility.yul\":14365:14370   */\n      dup2\n        /* \"#utility.yul\":14361:14374   */\n      add\n        /* \"#utility.yul\":14352:14374   */\n      swap1\n      pop\n        /* \"#utility.yul\":14328:14448   */\n      jump(tag_312)\n    tag_314:\n        /* \"#utility.yul\":14268:14454   */\n      pop\n      pop\n      jump\t// out\n        /* \"#utility.yul\":14460:15003   */\n    tag_164:\n        /* \"#utility.yul\":14561:14563   */\n      0x1f\n        /* \"#utility.yul\":14556:14559   */\n      dup3\n        /* \"#utility.yul\":14553:14564   */\n      gt\n        /* \"#utility.yul\":14550:14996   */\n      iszero\n      tag_317\n      jumpi\n        /* \"#utility.yul\":14595:14633   */\n      tag_318\n        /* \"#utility.yul\":14627:14632   */\n      dup2\n        /* \"#utility.yul\":14595:14633   */\n      tag_153\n      jump\t// in\n    tag_318:\n        /* \"#utility.yul\":14679:14708   */\n      tag_319\n        /* \"#utility.yul\":14697:14707   */\n      dup5\n        /* \"#utility.yul\":14679:14708   */\n      tag_154\n      jump\t// in\n    tag_319:\n        /* \"#utility.yul\":14669:14677   */\n      dup2\n        /* \"#utility.yul\":14665:14709   */\n      add\n        /* \"#utility.yul\":14862:14864   */\n      0x20\n        /* \"#utility.yul\":14850:14860   */\n      dup6\n        /* \"#utility.yul\":14847:14865   */\n      lt\n        /* \"#utility.yul\":14844:14893   */\n      iszero\n      tag_320\n      jumpi\n        /* \"#utility.yul\":14883:14891   */\n      dup2\n        /* \"#utility.yul\":14868:14891   */\n      swap1\n      pop\n        /* \"#utility.yul\":14844:14893   */\n    tag_320:\n        /* \"#utility.yul\":14906:14986   */\n      tag_321\n        /* \"#utility.yul\":14962:14984   */\n      tag_322\n        /* \"#utility.yul\":14980:14983   */\n      dup6\n        /* \"#utility.yul\":14962:14984   */\n      tag_154\n      jump\t// in\n    tag_322:\n        /* \"#utility.yul\":14952:14960   */\n      dup4\n        /* \"#utility.yul\":14948:14985   */\n      add\n        /* \"#utility.yul\":14935:14946   */\n      dup3\n        /* \"#utility.yul\":14906:14986   */\n      tag_163\n      jump\t// in\n    tag_321:\n        /* \"#utility.yul\":14565:14996   */\n      pop\n      pop\n        /* \"#utility.yul\":14550:14996   */\n    tag_317:\n        /* \"#utility.yul\":14460:15003   */\n      pop\n      pop\n      pop\n      jump\t// out\n        /* \"#utility.yul\":15009:15126   */\n    tag_165:\n        /* \"#utility.yul\":15063:15071   */\n      0x00\n        /* \"#utility.yul\":15113:15118   */\n      dup3\n        /* \"#utility.yul\":15107:15111   */\n      dup3\n        /* \"#utility.yul\":15103:15119   */\n      shr\n        /* \"#utility.yul\":15082:15119   */\n      swap1\n      pop\n        /* \"#utility.yul\":15009:15126   */\n      swap3\n      swap2\n      pop\n      pop\n      jump\t// out\n        /* \"#utility.yul\":15132:15301   */\n    tag_166:\n        /* \"#utility.yul\":15176:15182   */\n      0x00\n        /* \"#utility.yul\":15209:15260   */\n      tag_325\n        /* \"#utility.yul\":15257:15258   */\n      0x00\n        /* \"#utility.yul\":15253:15259   */\n      not\n        /* \"#utility.yul\":15245:15250   */\n      dup5\n        /* \"#utility.yul\":15242:15243   */\n      0x08\n        /* \"#utility.yul\":15238:15251   */\n      mul\n        /* \"#utility.yul\":15209:15260   */\n      tag_165\n      jump\t// in\n    tag_325:\n        /* \"#utility.yul\":15205:15261   */\n      not\n        /* \"#utility.yul\":15290:15294   */\n      dup1\n        /* \"#utility.yul\":15284:15288   */\n      dup4\n        /* \"#utility.yul\":15280:15295   */\n      and\n        /* \"#utility.yul\":15270:15295   */\n      swap2\n      pop\n        /* \"#utility.yul\":15183:15301   */\n      pop\n        /* \"#utility.yul\":15132:15301   */\n      swap3\n      swap2\n      pop\n      pop\n      jump\t// out\n        /* \"#utility.yul\":15306:15601   */\n    tag_167:\n        /* \"#utility.yul\":15382:15386   */\n      0x00\n        /* \"#utility.yul\":15528:15557   */\n      tag_327\n        /* \"#utility.yul\":15553:15556   */\n      dup4\n        /* \"#utility.yul\":15547:15551   */\n      dup4\n        /* \"#utility.yul\":15528:15557   */\n      tag_166\n      jump\t// in\n    tag_327:\n        /* \"#utility.yul\":15520:15557   */\n      swap2\n      pop\n        /* \"#utility.yul\":15590:15593   */\n      dup3\n        /* \"#utility.yul\":15587:15588   */\n      0x02\n        /* \"#utility.yul\":15583:15594   */\n      mul\n        /* \"#utility.yul\":15577:15581   */\n      dup3\n        /* \"#utility.yul\":15574:15595   */\n      or\n        /* \"#utility.yul\":15566:15595   */\n      swap1\n      pop\n        /* \"#utility.yul\":15306:15601   */\n      swap3\n      swap2\n      pop\n      pop\n      jump\t// out\n        /* \"#utility.yul\":15606:17001   */\n    tag_76:\n        /* \"#utility.yul\":15723:15760   */\n      tag_329\n        /* \"#utility.yul\":15756:15759   */\n      dup3\n        /* \"#utility.yul\":15723:15760   */\n      tag_128\n      jump\t// in\n    tag_329:\n        /* \"#utility.yul\":15825:15843   */\n      0xffffffffffffffff\n        /* \"#utility.yul\":15817:15823   */\n      dup2\n        /* \"#utility.yul\":15814:15844   */\n      gt\n        /* \"#utility.yul\":15811:15867   */\n      iszero\n      tag_330\n      jumpi\n        /* \"#utility.yul\":15847:15865   */\n      tag_331\n      tag_39\n      jump\t// in\n    tag_331:\n        /* \"#utility.yul\":15811:15867   */\n    tag_330:\n        /* \"#utility.yul\":15891:15929   */\n      tag_332\n        /* \"#utility.yul\":15923:15927   */\n      dup3\n        /* \"#utility.yul\":15917:15928   */\n      sload\n        /* \"#utility.yul\":15891:15929   */\n      tag_55\n      jump\t// in\n    tag_332:\n        /* \"#utility.yul\":15976:16043   */\n      tag_333\n        /* \"#utility.yul\":16036:16042   */\n      dup3\n        /* \"#utility.yul\":16028:16034   */\n      dup3\n        /* \"#utility.yul\":16022:16026   */\n      dup6\n        /* \"#utility.yul\":15976:16043   */\n      tag_164\n      jump\t// in\n    tag_333:\n        /* \"#utility.yul\":16070:16071   */\n      0x00\n        /* \"#utility.yul\":16094:16098   */\n      0x20\n        /* \"#utility.yul\":16081:16098   */\n      swap1\n      pop\n        /* \"#utility.yul\":16126:16128   */\n      0x1f\n        /* \"#utility.yul\":16118:16124   */\n      dup4\n        /* \"#utility.yul\":16115:16129   */\n      gt\n        /* \"#utility.yul\":16143:16144   */\n      0x01\n        /* \"#utility.yul\":16138:16756   */\n      dup2\n      eq\n      tag_335\n      jumpi\n        /* \"#utility.yul\":16800:16801   */\n      0x00\n        /* \"#utility.yul\":16817:16823   */\n      dup5\n        /* \"#utility.yul\":16814:16891   */\n      iszero\n      tag_336\n      jumpi\n        /* \"#utility.yul\":16866:16875   */\n      dup3\n        /* \"#utility.yul\":16861:16864   */\n      dup8\n        /* \"#utility.yul\":16857:16876   */\n      add\n        /* \"#utility.yul\":16851:16877   */\n      mload\n        /* \"#utility.yul\":16842:16877   */\n      swap1\n      pop\n        /* \"#utility.yul\":16814:16891   */\n    tag_336:\n        /* \"#utility.yul\":16917:16984   */\n      tag_337\n        /* \"#utility.yul\":16977:16983   */\n      dup6\n        /* \"#utility.yul\":16970:16975   */\n      dup3\n        /* \"#utility.yul\":16917:16984   */\n      tag_167\n      jump\t// in\n    tag_337:\n        /* \"#utility.yul\":16911:16915   */\n      dup7\n        /* \"#utility.yul\":16904:16985   */\n      sstore\n        /* \"#utility.yul\":16773:16995   */\n      pop\n        /* \"#utility.yul\":16108:16995   */\n      jump(tag_334)\n        /* \"#utility.yul\":16138:16756   */\n    tag_335:\n        /* \"#utility.yul\":16190:16194   */\n      0x1f\n        /* \"#utility.yul\":16186:16195   */\n      not\n        /* \"#utility.yul\":16178:16184   */\n      dup5\n        /* \"#utility.yul\":16174:16196   */\n      and\n        /* \"#utility.yul\":16224:16261   */\n      tag_338\n        /* \"#utility.yul\":16256:16260   */\n      dup7\n        /* \"#utility.yul\":16224:16261   */\n      tag_153\n      jump\t// in\n    tag_338:\n        /* \"#utility.yul\":16283:16284   */\n      0x00\n        /* \"#utility.yul\":16297:16505   */\n    tag_339:\n        /* \"#utility.yul\":16311:16318   */\n      dup3\n        /* \"#utility.yul\":16308:16309   */\n      dup2\n        /* \"#utility.yul\":16305:16319   */\n      lt\n        /* \"#utility.yul\":16297:16505   */\n      iszero\n      tag_341\n      jumpi\n        /* \"#utility.yul\":16390:16399   */\n      dup5\n        /* \"#utility.yul\":16385:16388   */\n      dup10\n        /* \"#utility.yul\":16381:16400   */\n      add\n        /* \"#utility.yul\":16375:16401   */\n      mload\n        /* \"#utility.yul\":16367:16373   */\n      dup3\n        /* \"#utility.yul\":16360:16402   */\n      sstore\n        /* \"#utility.yul\":16441:16442   */\n      0x01\n        /* \"#utility.yul\":16433:16439   */\n      dup3\n        /* \"#utility.yul\":16429:16443   */\n      add\n        /* \"#utility.yul\":16419:16443   */\n      swap2\n      pop\n        /* \"#utility.yul\":16488:16490   */\n      0x20\n        /* \"#utility.yul\":16477:16486   */\n      dup6\n        /* \"#utility.yul\":16473:16491   */\n      add\n        /* \"#utility.yul\":16460:16491   */\n      swap5\n      pop\n        /* \"#utility.yul\":16334:16338   */\n      0x20\n        /* \"#utility.yul\":16331:16332   */\n      dup2\n        /* \"#utility.yul\":16327:16339   */\n      add\n        /* \"#utility.yul\":16322:16339   */\n      swap1\n      pop\n        /* \"#utility.yul\":16297:16505   */\n      jump(tag_339)\n    tag_341:\n        /* \"#utility.yul\":16533:16539   */\n      dup7\n        /* \"#utility.yul\":16524:16531   */\n      dup4\n        /* \"#utility.yul\":16521:16540   */\n      lt\n        /* \"#utility.yul\":16518:16697   */\n      iszero\n      tag_342\n      jumpi\n        /* \"#utility.yul\":16591:16600   */\n      dup5\n        /* \"#utility.yul\":16586:16589   */\n      dup10\n        /* \"#utility.yul\":16582:16601   */\n      add\n        /* \"#utility.yul\":16576:16602   */\n      mload\n        /* \"#utility.yul\":16634:16682   */\n      tag_343\n        /* \"#utility.yul\":16676:16680   */\n      0x1f\n        /* \"#utility.yul\":16668:16674   */\n      dup10\n        /* \"#utility.yul\":16664:16681   */\n      and\n        /* \"#utility.yul\":16653:16662   */\n      dup3\n        /* \"#utility.yul\":16634:16682   */\n      tag_166\n      jump\t// in\n    tag_343:\n        /* \"#utility.yul\":16626:16632   */\n      dup4\n        /* \"#utility.yul\":16619:16683   */\n      sstore\n        /* \"#utility.yul\":16541:16697   */\n      pop\n        /* \"#utility.yul\":16518:16697   */\n    tag_342:\n        /* \"#utility.yul\":16743:16744   */\n      0x01\n        /* \"#utility.yul\":16739:16740   */\n      0x02\n        /* \"#utility.yul\":16731:16737   */\n      dup9\n        /* \"#utility.yul\":16727:16741   */\n      mul\n        /* \"#utility.yul\":16723:16745   */\n      add\n        /* \"#utility.yul\":16717:16721   */\n      dup9\n        /* \"#utility.yul\":16710:16746   */\n      sstore\n        /* \"#utility.yul\":16145:16756   */\n      pop\n      pop\n      pop\n        /* \"#utility.yul\":16108:16995   */\n    tag_334:\n      pop\n        /* \"#utility.yul\":15698:17001   */\n      pop\n      pop\n      pop\n        /* \"#utility.yul\":15606:17001   */\n      pop\n      pop\n      jump\t// out\n        /* \"#utility.yul\":17007:17722   */\n    tag_80:\n        /* \"#utility.yul\":17216:17220   */\n      0x00\n        /* \"#utility.yul\":17254:17256   */\n      0x60\n        /* \"#utility.yul\":17243:17252   */\n      dup3\n        /* \"#utility.yul\":17239:17257   */\n      add\n        /* \"#utility.yul\":17231:17257   */\n      swap1\n      pop\n        /* \"#utility.yul\":17303:17312   */\n      dup2\n        /* \"#utility.yul\":17297:17301   */\n      dup2\n        /* \"#utility.yul\":17293:17313   */\n      sub\n        /* \"#utility.yul\":17289:17290   */\n      0x00\n        /* \"#utility.yul\":17278:17287   */\n      dup4\n        /* \"#utility.yul\":17274:17291   */\n      add\n        /* \"#utility.yul\":17267:17314   */\n      mstore\n        /* \"#utility.yul\":17331:17409   */\n      tag_345\n        /* \"#utility.yul\":17404:17408   */\n      dup2\n        /* \"#utility.yul\":17395:17401   */\n      dup7\n        /* \"#utility.yul\":17331:17409   */\n      tag_150\n      jump\t// in\n    tag_345:\n        /* \"#utility.yul\":17323:17409   */\n      swap1\n      pop\n        /* \"#utility.yul\":17456:17465   */\n      dup2\n        /* \"#utility.yul\":17450:17454   */\n      dup2\n        /* \"#utility.yul\":17446:17466   */\n      sub\n        /* \"#utility.yul\":17441:17443   */\n      0x20\n        /* \"#utility.yul\":17430:17439   */\n      dup4\n        /* \"#utility.yul\":17426:17444   */\n      add\n        /* \"#utility.yul\":17419:17467   */\n      mstore\n        /* \"#utility.yul\":17484:17562   */\n      tag_346\n        /* \"#utility.yul\":17557:17561   */\n      dup2\n        /* \"#utility.yul\":17548:17554   */\n      dup6\n        /* \"#utility.yul\":17484:17562   */\n      tag_150\n      jump\t// in\n    tag_346:\n        /* \"#utility.yul\":17476:17562   */\n      swap1\n      pop\n        /* \"#utility.yul\":17609:17618   */\n      dup2\n        /* \"#utility.yul\":17603:17607   */\n      dup2\n        /* \"#utility.yul\":17599:17619   */\n      sub\n        /* \"#utility.yul\":17594:17596   */\n      0x40\n        /* \"#utility.yul\":17583:17592   */\n      dup4\n        /* \"#utility.yul\":17579:17597   */\n      add\n        /* \"#utility.yul\":17572:17620   */\n      mstore\n        /* \"#utility.yul\":17637:17715   */\n      tag_347\n        /* \"#utility.yul\":17710:17714   */\n      dup2\n        /* \"#utility.yul\":17701:17707   */\n      dup5\n        /* \"#utility.yul\":17637:17715   */\n      tag_150\n      jump\t// in\n    tag_347:\n        /* \"#utility.yul\":17629:17715   */\n      swap1\n      pop\n        /* \"#utility.yul\":17007:17722   */\n      swap5\n      swap4\n      pop\n      pop\n      pop\n      pop\n      jump\t// out\n\n    auxdata: 0xa2646970667358221220f04f4836b6137d9691bf378a75a33c7d2d7788b5e4a321321008544f2019c0a864736f6c63430008180033\n}\n",
				"bytecode": {
					"linkReferences": {},
					"object": "608060405234801561000f575f80fd5b506113dc8061001d5f395ff3fe608060405234801561000f575f80fd5b506004361061004a575f3560e01c8063380e78af1461004e578063879a2bb31461007e5780638a48ac031461009a5780639d2e8724146100b8575b5f80fd5b61006860048036038101906100639190610b08565b6100eb565b6040516100759190610cf5565b60405180910390f35b61009860048036038101906100939190610e41565b6104d9565b005b6100a2610616565b6040516100af9190610cf5565b60405180910390f35b6100d260048036038101906100cd9190610f18565b610875565b6040516100e29493929190610f9a565b60405180910390f35b60605f805b5f8054905081101561018b578373ffffffffffffffffffffffffffffffffffffffff165f828154811061012657610125610ff2565b5b905f5260205f2090600402015f015f9054906101000a900473ffffffffffffffffffffffffffffffffffffffff1673ffffffffffffffffffffffffffffffffffffffff160361017e57818061017a9061104c565b9250505b80806001019150506100f0565b505f8167ffffffffffffffff8111156101a7576101a6610d1d565b5b6040519080825280602002602001820160405280156101e057816020015b6101cd610a60565b8152602001906001900390816101c55790505b5090505f805b5f805490508110156104cd578573ffffffffffffffffffffffffffffffffffffffff165f828154811061021c5761021b610ff2565b5b905f5260205f2090600402015f015f9054906101000a900473ffffffffffffffffffffffffffffffffffffffff1673ffffffffffffffffffffffffffffffffffffffff16036104c0575f818154811061027857610277610ff2565b5b905f5260205f2090600402016040518060800160405290815f82015f9054906101000a900473ffffffffffffffffffffffffffffffffffffffff1673ffffffffffffffffffffffffffffffffffffffff1673ffffffffffffffffffffffffffffffffffffffff1681526020016001820180546102f3906110c0565b80601f016020809104026020016040519081016040528092919081815260200182805461031f906110c0565b801561036a5780601f106103415761010080835404028352916020019161036a565b820191905f5260205f20905b81548152906001019060200180831161034d57829003601f168201915b50505050508152602001600282018054610383906110c0565b80601f01602080910402602001604051908101604052809291908181526020018280546103af906110c0565b80156103fa5780601f106103d1576101008083540402835291602001916103fa565b820191905f5260205f20905b8154815290600101906020018083116103dd57829003601f168201915b50505050508152602001600382018054610413906110c0565b80601f016020809104026020016040519081016040528092919081815260200182805461043f906110c0565b801561048a5780601f106104615761010080835404028352916020019161048a565b820191905f5260205f20905b81548152906001019060200180831161046d57829003601f168201915b5050505050815250508383815181106104a6576104a5610ff2565b5b602002602001018190525081806104bc9061104c565b9250505b80806001019150506101e6565b50819350505050919050565b5f60405180608001604052803373ffffffffffffffffffffffffffffffffffffffff16815260200185815260200184815260200183815250908060018154018082558091505060019003905f5260205f2090600402015f909190919091505f820151815f015f6101000a81548173ffffffffffffffffffffffffffffffffffffffff021916908373ffffffffffffffffffffffffffffffffffffffff1602179055506020820151816001019081610590919061128d565b5060408201518160020190816105a6919061128d565b5060608201518160030190816105bc919061128d565b5050503373ffffffffffffffffffffffffffffffffffffffff167f6b351a9d7298ddae531d0101befb1f430ccb6aebdcb0b867fcc742cbc7f4b06d8484846040516106099392919061135c565b60405180910390a2505050565b60605f805480602002602001604051908101604052809291908181526020015f905b8282101561086c578382905f5260205f2090600402016040518060800160405290815f82015f9054906101000a900473ffffffffffffffffffffffffffffffffffffffff1673ffffffffffffffffffffffffffffffffffffffff1673ffffffffffffffffffffffffffffffffffffffff1681526020016001820180546106bd906110c0565b80601f01602080910402602001604051908101604052809291908181526020018280546106e9906110c0565b80156107345780601f1061070b57610100808354040283529160200191610734565b820191905f5260205f20905b81548152906001019060200180831161071757829003601f168201915b5050505050815260200160028201805461074d906110c0565b80601f0160208091040260200160405190810160405280929190818152602001828054610779906110c0565b80156107c45780601f1061079b576101008083540402835291602001916107c4565b820191905f5260205f20905b8154815290600101906020018083116107a757829003601f168201915b505050505081526020016003820180546107dd906110c0565b80601f0160208091040260200160405190810160405280929190818152602001828054610809906110c0565b80156108545780601f1061082b57610100808354040283529160200191610854565b820191905f5260205f20905b81548152906001019060200180831161083757829003601f168201915b50505050508152505081526020019060010190610638565b50505050905090565b5f8181548110610883575f80fd5b905f5260205f2090600402015f91509050805f015f9054906101000a900473ffffffffffffffffffffffffffffffffffffffff16908060010180546108c7906110c0565b80601f01602080910402602001604051908101604052809291908181526020018280546108f3906110c0565b801561093e5780601f106109155761010080835404028352916020019161093e565b820191905f5260205f20905b81548152906001019060200180831161092157829003601f168201915b505050505090806002018054610953906110c0565b80601f016020809104026020016040519081016040528092919081815260200182805461097f906110c0565b80156109ca5780601f106109a1576101008083540402835291602001916109ca565b820191905f5260205f20905b8154815290600101906020018083116109ad57829003601f168201915b5050505050908060030180546109df906110c0565b80601f0160208091040260200160405190810160405280929190818152602001828054610a0b906110c0565b8015610a565780601f10610a2d57610100808354040283529160200191610a56565b820191905f5260205f20905b815481529060010190602001808311610a3957829003601f168201915b5050505050905084565b60405180608001604052805f73ffffffffffffffffffffffffffffffffffffffff1681526020016060815260200160608152602001606081525090565b5f604051905090565b5f80fd5b5f80fd5b5f73ffffffffffffffffffffffffffffffffffffffff82169050919050565b5f610ad782610aae565b9050919050565b610ae781610acd565b8114610af1575f80fd5b50565b5f81359050610b0281610ade565b92915050565b5f60208284031215610b1d57610b1c610aa6565b5b5f610b2a84828501610af4565b91505092915050565b5f81519050919050565b5f82825260208201905092915050565b5f819050602082019050919050565b610b6581610acd565b82525050565b5f81519050919050565b5f82825260208201905092915050565b5f5b83811015610ba2578082015181840152602081019050610b87565b5f8484015250505050565b5f601f19601f8301169050919050565b5f610bc782610b6b565b610bd18185610b75565b9350610be1818560208601610b85565b610bea81610bad565b840191505092915050565b5f608083015f830151610c0a5f860182610b5c565b5060208301518482036020860152610c228282610bbd565b91505060408301518482036040860152610c3c8282610bbd565b91505060608301518482036060860152610c568282610bbd565b9150508091505092915050565b5f610c6e8383610bf5565b905092915050565b5f602082019050919050565b5f610c8c82610b33565b610c968185610b3d565b935083602082028501610ca885610b4d565b805f5b85811015610ce35784840389528151610cc48582610c63565b9450610ccf83610c76565b925060208a01995050600181019050610cab565b50829750879550505050505092915050565b5f6020820190508181035f830152610d0d8184610c82565b905092915050565b5f80fd5b5f80fd5b7f4e487b71000000000000000000000000000000000000000000000000000000005f52604160045260245ffd5b610d5382610bad565b810181811067ffffffffffffffff82111715610d7257610d71610d1d565b5b80604052505050565b5f610d84610a9d565b9050610d908282610d4a565b919050565b5f67ffffffffffffffff821115610daf57610dae610d1d565b5b610db882610bad565b9050602081019050919050565b828183375f83830152505050565b5f610de5610de084610d95565b610d7b565b905082815260208101848484011115610e0157610e00610d19565b5b610e0c848285610dc5565b509392505050565b5f82601f830112610e2857610e27610d15565b5b8135610e38848260208601610dd3565b91505092915050565b5f805f60608486031215610e5857610e57610aa6565b5b5f84013567ffffffffffffffff811115610e7557610e74610aaa565b5b610e8186828701610e14565b935050602084013567ffffffffffffffff811115610ea257610ea1610aaa565b5b610eae86828701610e14565b925050604084013567ffffffffffffffff811115610ecf57610ece610aaa565b5b610edb86828701610e14565b9150509250925092565b5f819050919050565b610ef781610ee5565b8114610f01575f80fd5b50565b5f81359050610f1281610eee565b92915050565b5f60208284031215610f2d57610f2c610aa6565b5b5f610f3a84828501610f04565b91505092915050565b610f4c81610acd565b82525050565b5f82825260208201905092915050565b5f610f6c82610b6b565b610f768185610f52565b9350610f86818560208601610b85565b610f8f81610bad565b840191505092915050565b5f608082019050610fad5f830187610f43565b8181036020830152610fbf8186610f62565b90508181036040830152610fd38185610f62565b90508181036060830152610fe78184610f62565b905095945050505050565b7f4e487b71000000000000000000000000000000000000000000000000000000005f52603260045260245ffd5b7f4e487b71000000000000000000000000000000000000000000000000000000005f52601160045260245ffd5b5f61105682610ee5565b91507fffffffffffffffffffffffffffffffffffffffffffffffffffffffffffffffff82036110885761108761101f565b5b600182019050919050565b7f4e487b71000000000000000000000000000000000000000000000000000000005f52602260045260245ffd5b5f60028204905060018216806110d757607f821691505b6020821081036110ea576110e9611093565b5b50919050565b5f819050815f5260205f209050919050565b5f6020601f8301049050919050565b5f82821b905092915050565b5f6008830261114c7fffffffffffffffffffffffffffffffffffffffffffffffffffffffffffffffff82611111565b6111568683611111565b95508019841693508086168417925050509392505050565b5f819050919050565b5f61119161118c61118784610ee5565b61116e565b610ee5565b9050919050565b5f819050919050565b6111aa83611177565b6111be6111b682611198565b84845461111d565b825550505050565b5f90565b6111d26111c6565b6111dd8184846111a1565b505050565b5b81811015611200576111f55f826111ca565b6001810190506111e3565b5050565b601f82111561124557611216816110f0565b61121f84611102565b8101602085101561122e578190505b61124261123a85611102565b8301826111e2565b50505b505050565b5f82821c905092915050565b5f6112655f198460080261124a565b1980831691505092915050565b5f61127d8383611256565b9150826002028217905092915050565b61129682610b6b565b67ffffffffffffffff8111156112af576112ae610d1d565b5b6112b982546110c0565b6112c4828285611204565b5f60209050601f8311600181146112f5575f84156112e3578287015190505b6112ed8582611272565b865550611354565b601f198416611303866110f0565b5f5b8281101561132a57848901518255600182019150602085019450602081019050611305565b868310156113475784890151611343601f891682611256565b8355505b6001600288020188555050505b505050505050565b5f6060820190508181035f8301526113748186610f62565b905081810360208301526113888185610f62565b9050818103604083015261139c8184610f62565b905094935050505056fea2646970667358221220f04f4836b6137d9691bf378a75a33c7d2d7788b5e4a321321008544f2019c0a864736f6c63430008180033",
					"opcodes": "PUSH1 0x80 PUSH1 0x40 MSTORE CALLVALUE DUP1 ISZERO PUSH2 0xF JUMPI PUSH0 DUP1 REVERT JUMPDEST POP PUSH2 0x13DC DUP1 PUSH2 0x1D PUSH0 CODECOPY PUSH0 RETURN INVALID PUSH1 0x80 PUSH1 0x40 MSTORE CALLVALUE DUP1 ISZERO PUSH2 0xF JUMPI PUSH0 DUP1 REVERT JUMPDEST POP PUSH1 0x4 CALLDATASIZE LT PUSH2 0x4A JUMPI PUSH0 CALLDATALOAD PUSH1 0xE0 SHR DUP1 PUSH4 0x380E78AF EQ PUSH2 0x4E JUMPI DUP1 PUSH4 0x879A2BB3 EQ PUSH2 0x7E JUMPI DUP1 PUSH4 0x8A48AC03 EQ PUSH2 0x9A JUMPI DUP1 PUSH4 0x9D2E8724 EQ PUSH2 0xB8 JUMPI JUMPDEST PUSH0 DUP1 REVERT JUMPDEST PUSH2 0x68 PUSH1 0x4 DUP1 CALLDATASIZE SUB DUP2 ADD SWAP1 PUSH2 0x63 SWAP2 SWAP1 PUSH2 0xB08 JUMP JUMPDEST PUSH2 0xEB JUMP JUMPDEST PUSH1 0x40 MLOAD PUSH2 0x75 SWAP2 SWAP1 PUSH2 0xCF5 JUMP JUMPDEST PUSH1 0x40 MLOAD DUP1 SWAP2 SUB SWAP1 RETURN JUMPDEST PUSH2 0x98 PUSH1 0x4 DUP1 CALLDATASIZE SUB DUP2 ADD SWAP1 PUSH2 0x93 SWAP2 SWAP1 PUSH2 0xE41 JUMP JUMPDEST PUSH2 0x4D9 JUMP JUMPDEST STOP JUMPDEST PUSH2 0xA2 PUSH2 0x616 JUMP JUMPDEST PUSH1 0x40 MLOAD PUSH2 0xAF SWAP2 SWAP1 PUSH2 0xCF5 JUMP JUMPDEST PUSH1 0x40 MLOAD DUP1 SWAP2 SUB SWAP1 RETURN JUMPDEST PUSH2 0xD2 PUSH1 0x4 DUP1 CALLDATASIZE SUB DUP2 ADD SWAP1 PUSH2 0xCD SWAP2 SWAP1 PUSH2 0xF18 JUMP JUMPDEST PUSH2 0x875 JUMP JUMPDEST PUSH1 0x40 MLOAD PUSH2 0xE2 SWAP5 SWAP4 SWAP3 SWAP2 SWAP1 PUSH2 0xF9A JUMP JUMPDEST PUSH1 0x40 MLOAD DUP1 SWAP2 SUB SWAP1 RETURN JUMPDEST PUSH1 0x60 PUSH0 DUP1 JUMPDEST PUSH0 DUP1 SLOAD SWAP1 POP DUP2 LT ISZERO PUSH2 0x18B JUMPI DUP4 PUSH20 0xFFFFFFFFFFFFFFFFFFFFFFFFFFFFFFFFFFFFFFFF AND PUSH0 DUP3 DUP2 SLOAD DUP2 LT PUSH2 0x126 JUMPI PUSH2 0x125 PUSH2 0xFF2 JUMP JUMPDEST JUMPDEST SWAP1 PUSH0 MSTORE PUSH1 0x20 PUSH0 KECCAK256 SWAP1 PUSH1 0x4 MUL ADD PUSH0 ADD PUSH0 SWAP1 SLOAD SWAP1 PUSH2 0x100 EXP SWAP1 DIV PUSH20 0xFFFFFFFFFFFFFFFFFFFFFFFFFFFFFFFFFFFFFFFF AND PUSH20 0xFFFFFFFFFFFFFFFFFFFFFFFFFFFFFFFFFFFFFFFF AND SUB PUSH2 0x17E JUMPI DUP2 DUP1 PUSH2 0x17A SWAP1 PUSH2 0x104C JUMP JUMPDEST SWAP3 POP POP JUMPDEST DUP1 DUP1 PUSH1 0x1 ADD SWAP2 POP POP PUSH2 0xF0 JUMP JUMPDEST POP PUSH0 DUP2 PUSH8 0xFFFFFFFFFFFFFFFF DUP2 GT ISZERO PUSH2 0x1A7 JUMPI PUSH2 0x1A6 PUSH2 0xD1D JUMP JUMPDEST JUMPDEST PUSH1 0x40 MLOAD SWAP1 DUP1 DUP3 MSTORE DUP1 PUSH1 0x20 MUL PUSH1 0x20 ADD DUP3 ADD PUSH1 0x40 MSTORE DUP1 ISZERO PUSH2 0x1E0 JUMPI DUP2 PUSH1 0x20 ADD JUMPDEST PUSH2 0x1CD PUSH2 0xA60 JUMP JUMPDEST DUP2 MSTORE PUSH1 0x20 ADD SWAP1 PUSH1 0x1 SWAP1 SUB SWAP1 DUP2 PUSH2 0x1C5 JUMPI SWAP1 POP JUMPDEST POP SWAP1 POP PUSH0 DUP1 JUMPDEST PUSH0 DUP1 SLOAD SWAP1 POP DUP2 LT ISZERO PUSH2 0x4CD JUMPI DUP6 PUSH20 0xFFFFFFFFFFFFFFFFFFFFFFFFFFFFFFFFFFFFFFFF AND PUSH0 DUP3 DUP2 SLOAD DUP2 LT PUSH2 0x21C JUMPI PUSH2 0x21B PUSH2 0xFF2 JUMP JUMPDEST JUMPDEST SWAP1 PUSH0 MSTORE PUSH1 0x20 PUSH0 KECCAK256 SWAP1 PUSH1 0x4 MUL ADD PUSH0 ADD PUSH0 SWAP1 SLOAD SWAP1 PUSH2 0x100 EXP SWAP1 DIV PUSH20 0xFFFFFFFFFFFFFFFFFFFFFFFFFFFFFFFFFFFFFFFF AND PUSH20 0xFFFFFFFFFFFFFFFFFFFFFFFFFFFFFFFFFFFFFFFF AND SUB PUSH2 0x4C0 JUMPI PUSH0 DUP2 DUP2 SLOAD DUP2 LT PUSH2 0x278 JUMPI PUSH2 0x277 PUSH2 0xFF2 JUMP JUMPDEST JUMPDEST SWAP1 PUSH0 MSTORE PUSH1 0x20 PUSH0 KECCAK256 SWAP1 PUSH1 0x4 MUL ADD PUSH1 0x40 MLOAD DUP1 PUSH1 0x80 ADD PUSH1 0x40 MSTORE SWAP1 DUP2 PUSH0 DUP3 ADD PUSH0 SWAP1 SLOAD SWAP1 PUSH2 0x100 EXP SWAP1 DIV PUSH20 0xFFFFFFFFFFFFFFFFFFFFFFFFFFFFFFFFFFFFFFFF AND PUSH20 0xFFFFFFFFFFFFFFFFFFFFFFFFFFFFFFFFFFFFFFFF AND PUSH20 0xFFFFFFFFFFFFFFFFFFFFFFFFFFFFFFFFFFFFFFFF AND DUP2 MSTORE PUSH1 0x20 ADD PUSH1 0x1 DUP3 ADD DUP1 SLOAD PUSH2 0x2F3 SWAP1 PUSH2 0x10C0 JUMP JUMPDEST DUP1 PUSH1 0x1F ADD PUSH1 0x20 DUP1 SWAP2 DIV MUL PUSH1 0x20 ADD PUSH1 0x40 MLOAD SWAP1 DUP2 ADD PUSH1 0x40 MSTORE DUP1 SWAP3 SWAP2 SWAP1 DUP2 DUP2 MSTORE PUSH1 0x20 ADD DUP3 DUP1 SLOAD PUSH2 0x31F SWAP1 PUSH2 0x10C0 JUMP JUMPDEST DUP1 ISZERO PUSH2 0x36A JUMPI DUP1 PUSH1 0x1F LT PUSH2 0x341 JUMPI PUSH2 0x100 DUP1 DUP4 SLOAD DIV MUL DUP4 MSTORE SWAP2 PUSH1 0x20 ADD SWAP2 PUSH2 0x36A JUMP JUMPDEST DUP3 ADD SWAP2 SWAP1 PUSH0 MSTORE PUSH1 0x20 PUSH0 KECCAK256 SWAP1 JUMPDEST DUP2 SLOAD DUP2 MSTORE SWAP1 PUSH1 0x1 ADD SWAP1 PUSH1 0x20 ADD DUP1 DUP4 GT PUSH2 0x34D JUMPI DUP3 SWAP1 SUB PUSH1 0x1F AND DUP3 ADD SWAP2 JUMPDEST POP POP POP POP POP DUP2 MSTORE PUSH1 0x20 ADD PUSH1 0x2 DUP3 ADD DUP1 SLOAD PUSH2 0x383 SWAP1 PUSH2 0x10C0 JUMP JUMPDEST DUP1 PUSH1 0x1F ADD PUSH1 0x20 DUP1 SWAP2 DIV MUL PUSH1 0x20 ADD PUSH1 0x40 MLOAD SWAP1 DUP2 ADD PUSH1 0x40 MSTORE DUP1 SWAP3 SWAP2 SWAP1 DUP2 DUP2 MSTORE PUSH1 0x20 ADD DUP3 DUP1 SLOAD PUSH2 0x3AF SWAP1 PUSH2 0x10C0 JUMP JUMPDEST DUP1 ISZERO PUSH2 0x3FA JUMPI DUP1 PUSH1 0x1F LT PUSH2 0x3D1 JUMPI PUSH2 0x100 DUP1 DUP4 SLOAD DIV MUL DUP4 MSTORE SWAP2 PUSH1 0x20 ADD SWAP2 PUSH2 0x3FA JUMP JUMPDEST DUP3 ADD SWAP2 SWAP1 PUSH0 MSTORE PUSH1 0x20 PUSH0 KECCAK256 SWAP1 JUMPDEST DUP2 SLOAD DUP2 MSTORE SWAP1 PUSH1 0x1 ADD SWAP1 PUSH1 0x20 ADD DUP1 DUP4 GT PUSH2 0x3DD JUMPI DUP3 SWAP1 SUB PUSH1 0x1F AND DUP3 ADD SWAP2 JUMPDEST POP POP POP POP POP DUP2 MSTORE PUSH1 0x20 ADD PUSH1 0x3 DUP3 ADD DUP1 SLOAD PUSH2 0x413 SWAP1 PUSH2 0x10C0 JUMP JUMPDEST DUP1 PUSH1 0x1F ADD PUSH1 0x20 DUP1 SWAP2 DIV MUL PUSH1 0x20 ADD PUSH1 0x40 MLOAD SWAP1 DUP2 ADD PUSH1 0x40 MSTORE DUP1 SWAP3 SWAP2 SWAP1 DUP2 DUP2 MSTORE PUSH1 0x20 ADD DUP3 DUP1 SLOAD PUSH2 0x43F SWAP1 PUSH2 0x10C0 JUMP JUMPDEST DUP1 ISZERO PUSH2 0x48A JUMPI DUP1 PUSH1 0x1F LT PUSH2 0x461 JUMPI PUSH2 0x100 DUP1 DUP4 SLOAD DIV MUL DUP4 MSTORE SWAP2 PUSH1 0x20 ADD SWAP2 PUSH2 0x48A JUMP JUMPDEST DUP3 ADD SWAP2 SWAP1 PUSH0 MSTORE PUSH1 0x20 PUSH0 KECCAK256 SWAP1 JUMPDEST DUP2 SLOAD DUP2 MSTORE SWAP1 PUSH1 0x1 ADD SWAP1 PUSH1 0x20 ADD DUP1 DUP4 GT PUSH2 0x46D JUMPI DUP3 SWAP1 SUB PUSH1 0x1F AND DUP3 ADD SWAP2 JUMPDEST POP POP POP POP POP DUP2 MSTORE POP POP DUP4 DUP4 DUP2 MLOAD DUP2 LT PUSH2 0x4A6 JUMPI PUSH2 0x4A5 PUSH2 0xFF2 JUMP JUMPDEST JUMPDEST PUSH1 0x20 MUL PUSH1 0x20 ADD ADD DUP2 SWAP1 MSTORE POP DUP2 DUP1 PUSH2 0x4BC SWAP1 PUSH2 0x104C JUMP JUMPDEST SWAP3 POP POP JUMPDEST DUP1 DUP1 PUSH1 0x1 ADD SWAP2 POP POP PUSH2 0x1E6 JUMP JUMPDEST POP DUP2 SWAP4 POP POP POP POP SWAP2 SWAP1 POP JUMP JUMPDEST PUSH0 PUSH1 0x40 MLOAD DUP1 PUSH1 0x80 ADD PUSH1 0x40 MSTORE DUP1 CALLER PUSH20 0xFFFFFFFFFFFFFFFFFFFFFFFFFFFFFFFFFFFFFFFF AND DUP2 MSTORE PUSH1 0x20 ADD DUP6 DUP2 MSTORE PUSH1 0x20 ADD DUP5 DUP2 MSTORE PUSH1 0x20 ADD DUP4 DUP2 MSTORE POP SWAP1 DUP1 PUSH1 0x1 DUP2 SLOAD ADD DUP1 DUP3 SSTORE DUP1 SWAP2 POP POP PUSH1 0x1 SWAP1 SUB SWAP1 PUSH0 MSTORE PUSH1 0x20 PUSH0 KECCAK256 SWAP1 PUSH1 0x4 MUL ADD PUSH0 SWAP1 SWAP2 SWAP1 SWAP2 SWAP1 SWAP2 POP PUSH0 DUP3 ADD MLOAD DUP2 PUSH0 ADD PUSH0 PUSH2 0x100 EXP DUP2 SLOAD DUP2 PUSH20 0xFFFFFFFFFFFFFFFFFFFFFFFFFFFFFFFFFFFFFFFF MUL NOT AND SWAP1 DUP4 PUSH20 0xFFFFFFFFFFFFFFFFFFFFFFFFFFFFFFFFFFFFFFFF AND MUL OR SWAP1 SSTORE POP PUSH1 0x20 DUP3 ADD MLOAD DUP2 PUSH1 0x1 ADD SWAP1 DUP2 PUSH2 0x590 SWAP2 SWAP1 PUSH2 0x128D JUMP JUMPDEST POP PUSH1 0x40 DUP3 ADD MLOAD DUP2 PUSH1 0x2 ADD SWAP1 DUP2 PUSH2 0x5A6 SWAP2 SWAP1 PUSH2 0x128D JUMP JUMPDEST POP PUSH1 0x60 DUP3 ADD MLOAD DUP2 PUSH1 0x3 ADD SWAP1 DUP2 PUSH2 0x5BC SWAP2 SWAP1 PUSH2 0x128D JUMP JUMPDEST POP POP POP CALLER PUSH20 0xFFFFFFFFFFFFFFFFFFFFFFFFFFFFFFFFFFFFFFFF AND PUSH32 0x6B351A9D7298DDAE531D0101BEFB1F430CCB6AEBDCB0B867FCC742CBC7F4B06D DUP5 DUP5 DUP5 PUSH1 0x40 MLOAD PUSH2 0x609 SWAP4 SWAP3 SWAP2 SWAP1 PUSH2 0x135C JUMP JUMPDEST PUSH1 0x40 MLOAD DUP1 SWAP2 SUB SWAP1 LOG2 POP POP POP JUMP JUMPDEST PUSH1 0x60 PUSH0 DUP1 SLOAD DUP1 PUSH1 0x20 MUL PUSH1 0x20 ADD PUSH1 0x40 MLOAD SWAP1 DUP2 ADD PUSH1 0x40 MSTORE DUP1 SWAP3 SWAP2 SWAP1 DUP2 DUP2 MSTORE PUSH1 0x20 ADD PUSH0 SWAP1 JUMPDEST DUP3 DUP3 LT ISZERO PUSH2 0x86C JUMPI DUP4 DUP3 SWAP1 PUSH0 MSTORE PUSH1 0x20 PUSH0 KECCAK256 SWAP1 PUSH1 0x4 MUL ADD PUSH1 0x40 MLOAD DUP1 PUSH1 0x80 ADD PUSH1 0x40 MSTORE SWAP1 DUP2 PUSH0 DUP3 ADD PUSH0 SWAP1 SLOAD SWAP1 PUSH2 0x100 EXP SWAP1 DIV PUSH20 0xFFFFFFFFFFFFFFFFFFFFFFFFFFFFFFFFFFFFFFFF AND PUSH20 0xFFFFFFFFFFFFFFFFFFFFFFFFFFFFFFFFFFFFFFFF AND PUSH20 0xFFFFFFFFFFFFFFFFFFFFFFFFFFFFFFFFFFFFFFFF AND DUP2 MSTORE PUSH1 0x20 ADD PUSH1 0x1 DUP3 ADD DUP1 SLOAD PUSH2 0x6BD SWAP1 PUSH2 0x10C0 JUMP JUMPDEST DUP1 PUSH1 0x1F ADD PUSH1 0x20 DUP1 SWAP2 DIV MUL PUSH1 0x20 ADD PUSH1 0x40 MLOAD SWAP1 DUP2 ADD PUSH1 0x40 MSTORE DUP1 SWAP3 SWAP2 SWAP1 DUP2 DUP2 MSTORE PUSH1 0x20 ADD DUP3 DUP1 SLOAD PUSH2 0x6E9 SWAP1 PUSH2 0x10C0 JUMP JUMPDEST DUP1 ISZERO PUSH2 0x734 JUMPI DUP1 PUSH1 0x1F LT PUSH2 0x70B JUMPI PUSH2 0x100 DUP1 DUP4 SLOAD DIV MUL DUP4 MSTORE SWAP2 PUSH1 0x20 ADD SWAP2 PUSH2 0x734 JUMP JUMPDEST DUP3 ADD SWAP2 SWAP1 PUSH0 MSTORE PUSH1 0x20 PUSH0 KECCAK256 SWAP1 JUMPDEST DUP2 SLOAD DUP2 MSTORE SWAP1 PUSH1 0x1 ADD SWAP1 PUSH1 0x20 ADD DUP1 DUP4 GT PUSH2 0x717 JUMPI DUP3 SWAP1 SUB PUSH1 0x1F AND DUP3 ADD SWAP2 JUMPDEST POP POP POP POP POP DUP2 MSTORE PUSH1 0x20 ADD PUSH1 0x2 DUP3 ADD DUP1 SLOAD PUSH2 0x74D SWAP1 PUSH2 0x10C0 JUMP JUMPDEST DUP1 PUSH1 0x1F ADD PUSH1 0x20 DUP1 SWAP2 DIV MUL PUSH1 0x20 ADD PUSH1 0x40 MLOAD SWAP1 DUP2 ADD PUSH1 0x40 MSTORE DUP1 SWAP3 SWAP2 SWAP1 DUP2 DUP2 MSTORE PUSH1 0x20 ADD DUP3 DUP1 SLOAD PUSH2 0x779 SWAP1 PUSH2 0x10C0 JUMP JUMPDEST DUP1 ISZERO PUSH2 0x7C4 JUMPI DUP1 PUSH1 0x1F LT PUSH2 0x79B JUMPI PUSH2 0x100 DUP1 DUP4 SLOAD DIV MUL DUP4 MSTORE SWAP2 PUSH1 0x20 ADD SWAP2 PUSH2 0x7C4 JUMP JUMPDEST DUP3 ADD SWAP2 SWAP1 PUSH0 MSTORE PUSH1 0x20 PUSH0 KECCAK256 SWAP1 JUMPDEST DUP2 SLOAD DUP2 MSTORE SWAP1 PUSH1 0x1 ADD SWAP1 PUSH1 0x20 ADD DUP1 DUP4 GT PUSH2 0x7A7 JUMPI DUP3 SWAP1 SUB PUSH1 0x1F AND DUP3 ADD SWAP2 JUMPDEST POP POP POP POP POP DUP2 MSTORE PUSH1 0x20 ADD PUSH1 0x3 DUP3 ADD DUP1 SLOAD PUSH2 0x7DD SWAP1 PUSH2 0x10C0 JUMP JUMPDEST DUP1 PUSH1 0x1F ADD PUSH1 0x20 DUP1 SWAP2 DIV MUL PUSH1 0x20 ADD PUSH1 0x40 MLOAD SWAP1 DUP2 ADD PUSH1 0x40 MSTORE DUP1 SWAP3 SWAP2 SWAP1 DUP2 DUP2 MSTORE PUSH1 0x20 ADD DUP3 DUP1 SLOAD PUSH2 0x809 SWAP1 PUSH2 0x10C0 JUMP JUMPDEST DUP1 ISZERO PUSH2 0x854 JUMPI DUP1 PUSH1 0x1F LT PUSH2 0x82B JUMPI PUSH2 0x100 DUP1 DUP4 SLOAD DIV MUL DUP4 MSTORE SWAP2 PUSH1 0x20 ADD SWAP2 PUSH2 0x854 JUMP JUMPDEST DUP3 ADD SWAP2 SWAP1 PUSH0 MSTORE PUSH1 0x20 PUSH0 KECCAK256 SWAP1 JUMPDEST DUP2 SLOAD DUP2 MSTORE SWAP1 PUSH1 0x1 ADD SWAP1 PUSH1 0x20 ADD DUP1 DUP4 GT PUSH2 0x837 JUMPI DUP3 SWAP1 SUB PUSH1 0x1F AND DUP3 ADD SWAP2 JUMPDEST POP POP POP POP POP DUP2 MSTORE POP POP DUP2 MSTORE PUSH1 0x20 ADD SWAP1 PUSH1 0x1 ADD SWAP1 PUSH2 0x638 JUMP JUMPDEST POP POP POP POP SWAP1 POP SWAP1 JUMP JUMPDEST PUSH0 DUP2 DUP2 SLOAD DUP2 LT PUSH2 0x883 JUMPI PUSH0 DUP1 REVERT JUMPDEST SWAP1 PUSH0 MSTORE PUSH1 0x20 PUSH0 KECCAK256 SWAP1 PUSH1 0x4 MUL ADD PUSH0 SWAP2 POP SWAP1 POP DUP1 PUSH0 ADD PUSH0 SWAP1 SLOAD SWAP1 PUSH2 0x100 EXP SWAP1 DIV PUSH20 0xFFFFFFFFFFFFFFFFFFFFFFFFFFFFFFFFFFFFFFFF AND SWAP1 DUP1 PUSH1 0x1 ADD DUP1 SLOAD PUSH2 0x8C7 SWAP1 PUSH2 0x10C0 JUMP JUMPDEST DUP1 PUSH1 0x1F ADD PUSH1 0x20 DUP1 SWAP2 DIV MUL PUSH1 0x20 ADD PUSH1 0x40 MLOAD SWAP1 DUP2 ADD PUSH1 0x40 MSTORE DUP1 SWAP3 SWAP2 SWAP1 DUP2 DUP2 MSTORE PUSH1 0x20 ADD DUP3 DUP1 SLOAD PUSH2 0x8F3 SWAP1 PUSH2 0x10C0 JUMP JUMPDEST DUP1 ISZERO PUSH2 0x93E JUMPI DUP1 PUSH1 0x1F LT PUSH2 0x915 JUMPI PUSH2 0x100 DUP1 DUP4 SLOAD DIV MUL DUP4 MSTORE SWAP2 PUSH1 0x20 ADD SWAP2 PUSH2 0x93E JUMP JUMPDEST DUP3 ADD SWAP2 SWAP1 PUSH0 MSTORE PUSH1 0x20 PUSH0 KECCAK256 SWAP1 JUMPDEST DUP2 SLOAD DUP2 MSTORE SWAP1 PUSH1 0x1 ADD SWAP1 PUSH1 0x20 ADD DUP1 DUP4 GT PUSH2 0x921 JUMPI DUP3 SWAP1 SUB PUSH1 0x1F AND DUP3 ADD SWAP2 JUMPDEST POP POP POP POP POP SWAP1 DUP1 PUSH1 0x2 ADD DUP1 SLOAD PUSH2 0x953 SWAP1 PUSH2 0x10C0 JUMP JUMPDEST DUP1 PUSH1 0x1F ADD PUSH1 0x20 DUP1 SWAP2 DIV MUL PUSH1 0x20 ADD PUSH1 0x40 MLOAD SWAP1 DUP2 ADD PUSH1 0x40 MSTORE DUP1 SWAP3 SWAP2 SWAP1 DUP2 DUP2 MSTORE PUSH1 0x20 ADD DUP3 DUP1 SLOAD PUSH2 0x97F SWAP1 PUSH2 0x10C0 JUMP JUMPDEST DUP1 ISZERO PUSH2 0x9CA JUMPI DUP1 PUSH1 0x1F LT PUSH2 0x9A1 JUMPI PUSH2 0x100 DUP1 DUP4 SLOAD DIV MUL DUP4 MSTORE SWAP2 PUSH1 0x20 ADD SWAP2 PUSH2 0x9CA JUMP JUMPDEST DUP3 ADD SWAP2 SWAP1 PUSH0 MSTORE PUSH1 0x20 PUSH0 KECCAK256 SWAP1 JUMPDEST DUP2 SLOAD DUP2 MSTORE SWAP1 PUSH1 0x1 ADD SWAP1 PUSH1 0x20 ADD DUP1 DUP4 GT PUSH2 0x9AD JUMPI DUP3 SWAP1 SUB PUSH1 0x1F AND DUP3 ADD SWAP2 JUMPDEST POP POP POP POP POP SWAP1 DUP1 PUSH1 0x3 ADD DUP1 SLOAD PUSH2 0x9DF SWAP1 PUSH2 0x10C0 JUMP JUMPDEST DUP1 PUSH1 0x1F ADD PUSH1 0x20 DUP1 SWAP2 DIV MUL PUSH1 0x20 ADD PUSH1 0x40 MLOAD SWAP1 DUP2 ADD PUSH1 0x40 MSTORE DUP1 SWAP3 SWAP2 SWAP1 DUP2 DUP2 MSTORE PUSH1 0x20 ADD DUP3 DUP1 SLOAD PUSH2 0xA0B SWAP1 PUSH2 0x10C0 JUMP JUMPDEST DUP1 ISZERO PUSH2 0xA56 JUMPI DUP1 PUSH1 0x1F LT PUSH2 0xA2D JUMPI PUSH2 0x100 DUP1 DUP4 SLOAD DIV MUL DUP4 MSTORE SWAP2 PUSH1 0x20 ADD SWAP2 PUSH2 0xA56 JUMP JUMPDEST DUP3 ADD SWAP2 SWAP1 PUSH0 MSTORE PUSH1 0x20 PUSH0 KECCAK256 SWAP1 JUMPDEST DUP2 SLOAD DUP2 MSTORE SWAP1 PUSH1 0x1 ADD SWAP1 PUSH1 0x20 ADD DUP1 DUP4 GT PUSH2 0xA39 JUMPI DUP3 SWAP1 SUB PUSH1 0x1F AND DUP3 ADD SWAP2 JUMPDEST POP POP POP POP POP SWAP1 POP DUP5 JUMP JUMPDEST PUSH1 0x40 MLOAD DUP1 PUSH1 0x80 ADD PUSH1 0x40 MSTORE DUP1 PUSH0 PUSH20 0xFFFFFFFFFFFFFFFFFFFFFFFFFFFFFFFFFFFFFFFF AND DUP2 MSTORE PUSH1 0x20 ADD PUSH1 0x60 DUP2 MSTORE PUSH1 0x20 ADD PUSH1 0x60 DUP2 MSTORE PUSH1 0x20 ADD PUSH1 0x60 DUP2 MSTORE POP SWAP1 JUMP JUMPDEST PUSH0 PUSH1 0x40 MLOAD SWAP1 POP SWAP1 JUMP JUMPDEST PUSH0 DUP1 REVERT JUMPDEST PUSH0 DUP1 REVERT JUMPDEST PUSH0 PUSH20 0xFFFFFFFFFFFFFFFFFFFFFFFFFFFFFFFFFFFFFFFF DUP3 AND SWAP1 POP SWAP2 SWAP1 POP JUMP JUMPDEST PUSH0 PUSH2 0xAD7 DUP3 PUSH2 0xAAE JUMP JUMPDEST SWAP1 POP SWAP2 SWAP1 POP JUMP JUMPDEST PUSH2 0xAE7 DUP2 PUSH2 0xACD JUMP JUMPDEST DUP2 EQ PUSH2 0xAF1 JUMPI PUSH0 DUP1 REVERT JUMPDEST POP JUMP JUMPDEST PUSH0 DUP2 CALLDATALOAD SWAP1 POP PUSH2 0xB02 DUP2 PUSH2 0xADE JUMP JUMPDEST SWAP3 SWAP2 POP POP JUMP JUMPDEST PUSH0 PUSH1 0x20 DUP3 DUP5 SUB SLT ISZERO PUSH2 0xB1D JUMPI PUSH2 0xB1C PUSH2 0xAA6 JUMP JUMPDEST JUMPDEST PUSH0 PUSH2 0xB2A DUP5 DUP3 DUP6 ADD PUSH2 0xAF4 JUMP JUMPDEST SWAP2 POP POP SWAP3 SWAP2 POP POP JUMP JUMPDEST PUSH0 DUP2 MLOAD SWAP1 POP SWAP2 SWAP1 POP JUMP JUMPDEST PUSH0 DUP3 DUP3 MSTORE PUSH1 0x20 DUP3 ADD SWAP1 POP SWAP3 SWAP2 POP POP JUMP JUMPDEST PUSH0 DUP2 SWAP1 POP PUSH1 0x20 DUP3 ADD SWAP1 POP SWAP2 SWAP1 POP JUMP JUMPDEST PUSH2 0xB65 DUP2 PUSH2 0xACD JUMP JUMPDEST DUP3 MSTORE POP POP JUMP JUMPDEST PUSH0 DUP2 MLOAD SWAP1 POP SWAP2 SWAP1 POP JUMP JUMPDEST PUSH0 DUP3 DUP3 MSTORE PUSH1 0x20 DUP3 ADD SWAP1 POP SWAP3 SWAP2 POP POP JUMP JUMPDEST PUSH0 JUMPDEST DUP4 DUP2 LT ISZERO PUSH2 0xBA2 JUMPI DUP1 DUP3 ADD MLOAD DUP2 DUP5 ADD MSTORE PUSH1 0x20 DUP2 ADD SWAP1 POP PUSH2 0xB87 JUMP JUMPDEST PUSH0 DUP5 DUP5 ADD MSTORE POP POP POP POP JUMP JUMPDEST PUSH0 PUSH1 0x1F NOT PUSH1 0x1F DUP4 ADD AND SWAP1 POP SWAP2 SWAP1 POP JUMP JUMPDEST PUSH0 PUSH2 0xBC7 DUP3 PUSH2 0xB6B JUMP JUMPDEST PUSH2 0xBD1 DUP2 DUP6 PUSH2 0xB75 JUMP JUMPDEST SWAP4 POP PUSH2 0xBE1 DUP2 DUP6 PUSH1 0x20 DUP7 ADD PUSH2 0xB85 JUMP JUMPDEST PUSH2 0xBEA DUP2 PUSH2 0xBAD JUMP JUMPDEST DUP5 ADD SWAP2 POP POP SWAP3 SWAP2 POP POP JUMP JUMPDEST PUSH0 PUSH1 0x80 DUP4 ADD PUSH0 DUP4 ADD MLOAD PUSH2 0xC0A PUSH0 DUP7 ADD DUP3 PUSH2 0xB5C JUMP JUMPDEST POP PUSH1 0x20 DUP4 ADD MLOAD DUP5 DUP3 SUB PUSH1 0x20 DUP7 ADD MSTORE PUSH2 0xC22 DUP3 DUP3 PUSH2 0xBBD JUMP JUMPDEST SWAP2 POP POP PUSH1 0x40 DUP4 ADD MLOAD DUP5 DUP3 SUB PUSH1 0x40 DUP7 ADD MSTORE PUSH2 0xC3C DUP3 DUP3 PUSH2 0xBBD JUMP JUMPDEST SWAP2 POP POP PUSH1 0x60 DUP4 ADD MLOAD DUP5 DUP3 SUB PUSH1 0x60 DUP7 ADD MSTORE PUSH2 0xC56 DUP3 DUP3 PUSH2 0xBBD JUMP JUMPDEST SWAP2 POP POP DUP1 SWAP2 POP POP SWAP3 SWAP2 POP POP JUMP JUMPDEST PUSH0 PUSH2 0xC6E DUP4 DUP4 PUSH2 0xBF5 JUMP JUMPDEST SWAP1 POP SWAP3 SWAP2 POP POP JUMP JUMPDEST PUSH0 PUSH1 0x20 DUP3 ADD SWAP1 POP SWAP2 SWAP1 POP JUMP JUMPDEST PUSH0 PUSH2 0xC8C DUP3 PUSH2 0xB33 JUMP JUMPDEST PUSH2 0xC96 DUP2 DUP6 PUSH2 0xB3D JUMP JUMPDEST SWAP4 POP DUP4 PUSH1 0x20 DUP3 MUL DUP6 ADD PUSH2 0xCA8 DUP6 PUSH2 0xB4D JUMP JUMPDEST DUP1 PUSH0 JUMPDEST DUP6 DUP2 LT ISZERO PUSH2 0xCE3 JUMPI DUP5 DUP5 SUB DUP10 MSTORE DUP2 MLOAD PUSH2 0xCC4 DUP6 DUP3 PUSH2 0xC63 JUMP JUMPDEST SWAP5 POP PUSH2 0xCCF DUP4 PUSH2 0xC76 JUMP JUMPDEST SWAP3 POP PUSH1 0x20 DUP11 ADD SWAP10 POP POP PUSH1 0x1 DUP2 ADD SWAP1 POP PUSH2 0xCAB JUMP JUMPDEST POP DUP3 SWAP8 POP DUP8 SWAP6 POP POP POP POP POP POP SWAP3 SWAP2 POP POP JUMP JUMPDEST PUSH0 PUSH1 0x20 DUP3 ADD SWAP1 POP DUP2 DUP2 SUB PUSH0 DUP4 ADD MSTORE PUSH2 0xD0D DUP2 DUP5 PUSH2 0xC82 JUMP JUMPDEST SWAP1 POP SWAP3 SWAP2 POP POP JUMP JUMPDEST PUSH0 DUP1 REVERT JUMPDEST PUSH0 DUP1 REVERT JUMPDEST PUSH32 0x4E487B7100000000000000000000000000000000000000000000000000000000 PUSH0 MSTORE PUSH1 0x41 PUSH1 0x4 MSTORE PUSH1 0x24 PUSH0 REVERT JUMPDEST PUSH2 0xD53 DUP3 PUSH2 0xBAD JUMP JUMPDEST DUP2 ADD DUP2 DUP2 LT PUSH8 0xFFFFFFFFFFFFFFFF DUP3 GT OR ISZERO PUSH2 0xD72 JUMPI PUSH2 0xD71 PUSH2 0xD1D JUMP JUMPDEST JUMPDEST DUP1 PUSH1 0x40 MSTORE POP POP POP JUMP JUMPDEST PUSH0 PUSH2 0xD84 PUSH2 0xA9D JUMP JUMPDEST SWAP1 POP PUSH2 0xD90 DUP3 DUP3 PUSH2 0xD4A JUMP JUMPDEST SWAP2 SWAP1 POP JUMP JUMPDEST PUSH0 PUSH8 0xFFFFFFFFFFFFFFFF DUP3 GT ISZERO PUSH2 0xDAF JUMPI PUSH2 0xDAE PUSH2 0xD1D JUMP JUMPDEST JUMPDEST PUSH2 0xDB8 DUP3 PUSH2 0xBAD JUMP JUMPDEST SWAP1 POP PUSH1 0x20 DUP2 ADD SWAP1 POP SWAP2 SWAP1 POP JUMP JUMPDEST DUP3 DUP2 DUP4 CALLDATACOPY PUSH0 DUP4 DUP4 ADD MSTORE POP POP POP JUMP JUMPDEST PUSH0 PUSH2 0xDE5 PUSH2 0xDE0 DUP5 PUSH2 0xD95 JUMP JUMPDEST PUSH2 0xD7B JUMP JUMPDEST SWAP1 POP DUP3 DUP2 MSTORE PUSH1 0x20 DUP2 ADD DUP5 DUP5 DUP5 ADD GT ISZERO PUSH2 0xE01 JUMPI PUSH2 0xE00 PUSH2 0xD19 JUMP JUMPDEST JUMPDEST PUSH2 0xE0C DUP5 DUP3 DUP6 PUSH2 0xDC5 JUMP JUMPDEST POP SWAP4 SWAP3 POP POP POP JUMP JUMPDEST PUSH0 DUP3 PUSH1 0x1F DUP4 ADD SLT PUSH2 0xE28 JUMPI PUSH2 0xE27 PUSH2 0xD15 JUMP JUMPDEST JUMPDEST DUP2 CALLDATALOAD PUSH2 0xE38 DUP5 DUP3 PUSH1 0x20 DUP7 ADD PUSH2 0xDD3 JUMP JUMPDEST SWAP2 POP POP SWAP3 SWAP2 POP POP JUMP JUMPDEST PUSH0 DUP1 PUSH0 PUSH1 0x60 DUP5 DUP7 SUB SLT ISZERO PUSH2 0xE58 JUMPI PUSH2 0xE57 PUSH2 0xAA6 JUMP JUMPDEST JUMPDEST PUSH0 DUP5 ADD CALLDATALOAD PUSH8 0xFFFFFFFFFFFFFFFF DUP2 GT ISZERO PUSH2 0xE75 JUMPI PUSH2 0xE74 PUSH2 0xAAA JUMP JUMPDEST JUMPDEST PUSH2 0xE81 DUP7 DUP3 DUP8 ADD PUSH2 0xE14 JUMP JUMPDEST SWAP4 POP POP PUSH1 0x20 DUP5 ADD CALLDATALOAD PUSH8 0xFFFFFFFFFFFFFFFF DUP2 GT ISZERO PUSH2 0xEA2 JUMPI PUSH2 0xEA1 PUSH2 0xAAA JUMP JUMPDEST JUMPDEST PUSH2 0xEAE DUP7 DUP3 DUP8 ADD PUSH2 0xE14 JUMP JUMPDEST SWAP3 POP POP PUSH1 0x40 DUP5 ADD CALLDATALOAD PUSH8 0xFFFFFFFFFFFFFFFF DUP2 GT ISZERO PUSH2 0xECF JUMPI PUSH2 0xECE PUSH2 0xAAA JUMP JUMPDEST JUMPDEST PUSH2 0xEDB DUP7 DUP3 DUP8 ADD PUSH2 0xE14 JUMP JUMPDEST SWAP2 POP POP SWAP3 POP SWAP3 POP SWAP3 JUMP JUMPDEST PUSH0 DUP2 SWAP1 POP SWAP2 SWAP1 POP JUMP JUMPDEST PUSH2 0xEF7 DUP2 PUSH2 0xEE5 JUMP JUMPDEST DUP2 EQ PUSH2 0xF01 JUMPI PUSH0 DUP1 REVERT JUMPDEST POP JUMP JUMPDEST PUSH0 DUP2 CALLDATALOAD SWAP1 POP PUSH2 0xF12 DUP2 PUSH2 0xEEE JUMP JUMPDEST SWAP3 SWAP2 POP POP JUMP JUMPDEST PUSH0 PUSH1 0x20 DUP3 DUP5 SUB SLT ISZERO PUSH2 0xF2D JUMPI PUSH2 0xF2C PUSH2 0xAA6 JUMP JUMPDEST JUMPDEST PUSH0 PUSH2 0xF3A DUP5 DUP3 DUP6 ADD PUSH2 0xF04 JUMP JUMPDEST SWAP2 POP POP SWAP3 SWAP2 POP POP JUMP JUMPDEST PUSH2 0xF4C DUP2 PUSH2 0xACD JUMP JUMPDEST DUP3 MSTORE POP POP JUMP JUMPDEST PUSH0 DUP3 DUP3 MSTORE PUSH1 0x20 DUP3 ADD SWAP1 POP SWAP3 SWAP2 POP POP JUMP JUMPDEST PUSH0 PUSH2 0xF6C DUP3 PUSH2 0xB6B JUMP JUMPDEST PUSH2 0xF76 DUP2 DUP6 PUSH2 0xF52 JUMP JUMPDEST SWAP4 POP PUSH2 0xF86 DUP2 DUP6 PUSH1 0x20 DUP7 ADD PUSH2 0xB85 JUMP JUMPDEST PUSH2 0xF8F DUP2 PUSH2 0xBAD JUMP JUMPDEST DUP5 ADD SWAP2 POP POP SWAP3 SWAP2 POP POP JUMP JUMPDEST PUSH0 PUSH1 0x80 DUP3 ADD SWAP1 POP PUSH2 0xFAD PUSH0 DUP4 ADD DUP8 PUSH2 0xF43 JUMP JUMPDEST DUP2 DUP2 SUB PUSH1 0x20 DUP4 ADD MSTORE PUSH2 0xFBF DUP2 DUP7 PUSH2 0xF62 JUMP JUMPDEST SWAP1 POP DUP2 DUP2 SUB PUSH1 0x40 DUP4 ADD MSTORE PUSH2 0xFD3 DUP2 DUP6 PUSH2 0xF62 JUMP JUMPDEST SWAP1 POP DUP2 DUP2 SUB PUSH1 0x60 DUP4 ADD MSTORE PUSH2 0xFE7 DUP2 DUP5 PUSH2 0xF62 JUMP JUMPDEST SWAP1 POP SWAP6 SWAP5 POP POP POP POP POP JUMP JUMPDEST PUSH32 0x4E487B7100000000000000000000000000000000000000000000000000000000 PUSH0 MSTORE PUSH1 0x32 PUSH1 0x4 MSTORE PUSH1 0x24 PUSH0 REVERT JUMPDEST PUSH32 0x4E487B7100000000000000000000000000000000000000000000000000000000 PUSH0 MSTORE PUSH1 0x11 PUSH1 0x4 MSTORE PUSH1 0x24 PUSH0 REVERT JUMPDEST PUSH0 PUSH2 0x1056 DUP3 PUSH2 0xEE5 JUMP JUMPDEST SWAP2 POP PUSH32 0xFFFFFFFFFFFFFFFFFFFFFFFFFFFFFFFFFFFFFFFFFFFFFFFFFFFFFFFFFFFFFFFF DUP3 SUB PUSH2 0x1088 JUMPI PUSH2 0x1087 PUSH2 0x101F JUMP JUMPDEST JUMPDEST PUSH1 0x1 DUP3 ADD SWAP1 POP SWAP2 SWAP1 POP JUMP JUMPDEST PUSH32 0x4E487B7100000000000000000000000000000000000000000000000000000000 PUSH0 MSTORE PUSH1 0x22 PUSH1 0x4 MSTORE PUSH1 0x24 PUSH0 REVERT JUMPDEST PUSH0 PUSH1 0x2 DUP3 DIV SWAP1 POP PUSH1 0x1 DUP3 AND DUP1 PUSH2 0x10D7 JUMPI PUSH1 0x7F DUP3 AND SWAP2 POP JUMPDEST PUSH1 0x20 DUP3 LT DUP2 SUB PUSH2 0x10EA JUMPI PUSH2 0x10E9 PUSH2 0x1093 JUMP JUMPDEST JUMPDEST POP SWAP2 SWAP1 POP JUMP JUMPDEST PUSH0 DUP2 SWAP1 POP DUP2 PUSH0 MSTORE PUSH1 0x20 PUSH0 KECCAK256 SWAP1 POP SWAP2 SWAP1 POP JUMP JUMPDEST PUSH0 PUSH1 0x20 PUSH1 0x1F DUP4 ADD DIV SWAP1 POP SWAP2 SWAP1 POP JUMP JUMPDEST PUSH0 DUP3 DUP3 SHL SWAP1 POP SWAP3 SWAP2 POP POP JUMP JUMPDEST PUSH0 PUSH1 0x8 DUP4 MUL PUSH2 0x114C PUSH32 0xFFFFFFFFFFFFFFFFFFFFFFFFFFFFFFFFFFFFFFFFFFFFFFFFFFFFFFFFFFFFFFFF DUP3 PUSH2 0x1111 JUMP JUMPDEST PUSH2 0x1156 DUP7 DUP4 PUSH2 0x1111 JUMP JUMPDEST SWAP6 POP DUP1 NOT DUP5 AND SWAP4 POP DUP1 DUP7 AND DUP5 OR SWAP3 POP POP POP SWAP4 SWAP3 POP POP POP JUMP JUMPDEST PUSH0 DUP2 SWAP1 POP SWAP2 SWAP1 POP JUMP JUMPDEST PUSH0 PUSH2 0x1191 PUSH2 0x118C PUSH2 0x1187 DUP5 PUSH2 0xEE5 JUMP JUMPDEST PUSH2 0x116E JUMP JUMPDEST PUSH2 0xEE5 JUMP JUMPDEST SWAP1 POP SWAP2 SWAP1 POP JUMP JUMPDEST PUSH0 DUP2 SWAP1 POP SWAP2 SWAP1 POP JUMP JUMPDEST PUSH2 0x11AA DUP4 PUSH2 0x1177 JUMP JUMPDEST PUSH2 0x11BE PUSH2 0x11B6 DUP3 PUSH2 0x1198 JUMP JUMPDEST DUP5 DUP5 SLOAD PUSH2 0x111D JUMP JUMPDEST DUP3 SSTORE POP POP POP POP JUMP JUMPDEST PUSH0 SWAP1 JUMP JUMPDEST PUSH2 0x11D2 PUSH2 0x11C6 JUMP JUMPDEST PUSH2 0x11DD DUP2 DUP5 DUP5 PUSH2 0x11A1 JUMP JUMPDEST POP POP POP JUMP JUMPDEST JUMPDEST DUP2 DUP2 LT ISZERO PUSH2 0x1200 JUMPI PUSH2 0x11F5 PUSH0 DUP3 PUSH2 0x11CA JUMP JUMPDEST PUSH1 0x1 DUP2 ADD SWAP1 POP PUSH2 0x11E3 JUMP JUMPDEST POP POP JUMP JUMPDEST PUSH1 0x1F DUP3 GT ISZERO PUSH2 0x1245 JUMPI PUSH2 0x1216 DUP2 PUSH2 0x10F0 JUMP JUMPDEST PUSH2 0x121F DUP5 PUSH2 0x1102 JUMP JUMPDEST DUP2 ADD PUSH1 0x20 DUP6 LT ISZERO PUSH2 0x122E JUMPI DUP2 SWAP1 POP JUMPDEST PUSH2 0x1242 PUSH2 0x123A DUP6 PUSH2 0x1102 JUMP JUMPDEST DUP4 ADD DUP3 PUSH2 0x11E2 JUMP JUMPDEST POP POP JUMPDEST POP POP POP JUMP JUMPDEST PUSH0 DUP3 DUP3 SHR SWAP1 POP SWAP3 SWAP2 POP POP JUMP JUMPDEST PUSH0 PUSH2 0x1265 PUSH0 NOT DUP5 PUSH1 0x8 MUL PUSH2 0x124A JUMP JUMPDEST NOT DUP1 DUP4 AND SWAP2 POP POP SWAP3 SWAP2 POP POP JUMP JUMPDEST PUSH0 PUSH2 0x127D DUP4 DUP4 PUSH2 0x1256 JUMP JUMPDEST SWAP2 POP DUP3 PUSH1 0x2 MUL DUP3 OR SWAP1 POP SWAP3 SWAP2 POP POP JUMP JUMPDEST PUSH2 0x1296 DUP3 PUSH2 0xB6B JUMP JUMPDEST PUSH8 0xFFFFFFFFFFFFFFFF DUP2 GT ISZERO PUSH2 0x12AF JUMPI PUSH2 0x12AE PUSH2 0xD1D JUMP JUMPDEST JUMPDEST PUSH2 0x12B9 DUP3 SLOAD PUSH2 0x10C0 JUMP JUMPDEST PUSH2 0x12C4 DUP3 DUP3 DUP6 PUSH2 0x1204 JUMP JUMPDEST PUSH0 PUSH1 0x20 SWAP1 POP PUSH1 0x1F DUP4 GT PUSH1 0x1 DUP2 EQ PUSH2 0x12F5 JUMPI PUSH0 DUP5 ISZERO PUSH2 0x12E3 JUMPI DUP3 DUP8 ADD MLOAD SWAP1 POP JUMPDEST PUSH2 0x12ED DUP6 DUP3 PUSH2 0x1272 JUMP JUMPDEST DUP7 SSTORE POP PUSH2 0x1354 JUMP JUMPDEST PUSH1 0x1F NOT DUP5 AND PUSH2 0x1303 DUP7 PUSH2 0x10F0 JUMP JUMPDEST PUSH0 JUMPDEST DUP3 DUP2 LT ISZERO PUSH2 0x132A JUMPI DUP5 DUP10 ADD MLOAD DUP3 SSTORE PUSH1 0x1 DUP3 ADD SWAP2 POP PUSH1 0x20 DUP6 ADD SWAP5 POP PUSH1 0x20 DUP2 ADD SWAP1 POP PUSH2 0x1305 JUMP JUMPDEST DUP7 DUP4 LT ISZERO PUSH2 0x1347 JUMPI DUP5 DUP10 ADD MLOAD PUSH2 0x1343 PUSH1 0x1F DUP10 AND DUP3 PUSH2 0x1256 JUMP JUMPDEST DUP4 SSTORE POP JUMPDEST PUSH1 0x1 PUSH1 0x2 DUP9 MUL ADD DUP9 SSTORE POP POP POP JUMPDEST POP POP POP POP POP POP JUMP JUMPDEST PUSH0 PUSH1 0x60 DUP3 ADD SWAP1 POP DUP2 DUP2 SUB PUSH0 DUP4 ADD MSTORE PUSH2 0x1374 DUP2 DUP7 PUSH2 0xF62 JUMP JUMPDEST SWAP1 POP DUP2 DUP2 SUB PUSH1 0x20 DUP4 ADD MSTORE PUSH2 0x1388 DUP2 DUP6 PUSH2 0xF62 JUMP JUMPDEST SWAP1 POP DUP2 DUP2 SUB PUSH1 0x40 DUP4 ADD MSTORE PUSH2 0x139C DUP2 DUP5 PUSH2 0xF62 JUMP JUMPDEST SWAP1 POP SWAP5 SWAP4 POP POP POP POP JUMP INVALID LOG2 PUSH5 0x6970667358 0x22 SLT KECCAK256 CREATE 0x4F BASEFEE CALLDATASIZE 0xB6 SGT PUSH30 0x9691BF378A75A33C7D2D7788B5E4A321321008544F2019C0A864736F6C63 NUMBER STOP ADDMOD XOR STOP CALLER "
				},
				"gasEstimates": {
					"creation": {
						"codeDepositCost": "1016800",
						"executionCost": "1052",
						"totalCost": "1017852"
					},
					"external": {
						"getAccounts()": "infinite",
						"getAccountsByAddress(address)": "infinite",
						"storeEncryptedAccount(string,string,string)": "infinite",
						"subWallets(uint256)": "infinite"
					}
				},
				"methodIdentifiers": {
					"getAccounts()": "8a48ac03",
					"getAccountsByAddress(address)": "380e78af",
					"storeEncryptedAccount(string,string,string)": "879a2bb3",
					"subWallets(uint256)": "9d2e8724"
				}
			},
			"storageLayout": {
				"storage": [
					{
						"astId": 14,
						"contract": "contracts/SubWallets.sol:SubWallets",
						"label": "subWallets",
						"offset": 0,
						"slot": "0",
						"type": "t_array(t_struct(SubWallet)10_storage)dyn_storage"
					}
				],
				"types": {
					"t_address": {
						"encoding": "inplace",
						"label": "address",
						"numberOfBytes": "20"
					},
					"t_array(t_struct(SubWallet)10_storage)dyn_storage": {
						"base": "t_struct(SubWallet)10_storage",
						"encoding": "dynamic_array",
						"label": "struct SubWallets.SubWallet[]",
						"numberOfBytes": "32"
					},
					"t_string_storage": {
						"encoding": "bytes",
						"label": "string",
						"numberOfBytes": "32"
					},
					"t_struct(SubWallet)10_storage": {
						"encoding": "inplace",
						"label": "struct SubWallets.SubWallet",
						"members": [
							{
								"astId": 3,
								"contract": "contracts/SubWallets.sol:SubWallets",
								"label": "owner",
								"offset": 0,
								"slot": "0",
								"type": "t_address"
							},
							{
								"astId": 5,
								"contract": "contracts/SubWallets.sol:SubWallets",
								"label": "encryptedAccount",
								"offset": 0,
								"slot": "1",
								"type": "t_string_storage"
							},
							{
								"astId": 7,
								"contract": "contracts/SubWallets.sol:SubWallets",
								"label": "network",
								"offset": 0,
								"slot": "2",
								"type": "t_string_storage"
							},
							{
								"astId": 9,
								"contract": "contracts/SubWallets.sol:SubWallets",
								"label": "accountAddress",
								"offset": 0,
								"slot": "3",
								"type": "t_string_storage"
							}
						],
						"numberOfBytes": "128"
					}
				}
			},
			"userdoc": {
				"kind": "user",
				"methods": {},
				"version": 1
			}
		}
	}
}